:020000040020DA
:10000000A44A002045242000292420003524200073
:100010003D2420003D2420003D242000000000005D
:100020000000000000000000000000003D2420004F
:100030003D242000000000003D2420003D2420003D
:100040003D2420003D2420003D2420003D242000AC
:10005000000000003D2420003D2420003D2420001D
:100060003D2420000000000000000000000000000F
:1000700000000000000000003D24200000000000FF
:1000800000000000000000003D2420003D2420006E
:100090003D2420003D2420003D2420003D2420005C
:1000A0003D2420003D2420003D2420003D2420004C
:1000B0003D2420003D2420003D2420003D2420003C
:1000C0003D2420003D2420003D2420003D2420002C
:1000D0003D2420000000000000000000000000009F
:1000E0000000000000000000000000000000000010
:1000F0003D242000000000003D2420003D2420007D
:1001000000000000000000000000000000000000EF
:1001100000000000000000000000000000000000DF
:1001200000000000000000000000000000000000CF
:1001300000000000000000000000000000000000BF
:1001400000000000000000000000000000000000AF
:10015000000000000000000000000000000000009F
:10016000000000000000000000000000000000008F
:10017000000000000000000000000000000000007F
:10018000000000000000000000000000000000006F
:10019000000000000000000000000000000000005F
:1001A000000000000000000000000000000000004F
:1001B000000000000000000000000000000000003F
:1001C000000000000000000000000000000000002F
:1001D000000000000000000000000000000000001F
:1001E000000000000000000000000000000000000F
:1001F00000000000000000000000000000000000FF
:1002000000000000000000000000000000000000EE
:1002100000000000000000000000000000000000DE
:1002200000000000000000000000000000000000CE
:1002300000000000000000000000000000000000BE
:1002400000000000000000000000000000000000AE
:10025000000000000000000000000000000000009E
:10026000000000000000000000000000000000008E
:100270003D2420003D2420003D2420003D2420007A
:100280003D2420003D2420003D24200080B582B084
:1002900000AF00F08FF800F0F7FD00F06DF800F00F
:1002A000FBFD00F069F800F0FFFD00F065F800F0DC
:1002B000AFFE00F061F800F03FFE00F05DF800F0E6
:1002C00043FE00F059F800F047FE00F055F800F04A
:1002D00007FE00F051F800F00BFE00F04DF800F0C2
:1002E0000FFE00F049F800F04FFE00F045F800F076
:1002F00053FE00F041F800F057FE00F03DF800F02A
:1003000077FE00F039F800F06BFE00F035F800F0F1
:100310006FFE00F031F800F073FE00F02DF800F0F1
:1003200067FE00F029F80023FB7106E000F000FFF3
:1003300000F022F8FB790133FB71FB79082BF5D92A
:1003400000F056FE00F018F800F09EFD00F014F8E2
:100350000023FB7106E000F08BFE00F00DF8FB7946
:100360000133FB71FB79082BF5D900F0B1F80023BC
:1003700018460837BD4680BD80B483B000AF4FF645
:10038000FF73FB8004E0FB889BB2013B9BB2FB80C8
:10039000FB889BB2002BF6D100BF0C37BD4680BC5A
:1003A000704700BF80B500AFFFF770FF03461846E7
:1003B00080BD00BF80B582B000AF184B00221A701C
:1003C00000F08CF800F0A6F800F02AF800F042F8EF
:1003D00000F04AFD00F000FB00F0DEF801F0BEFE88
:1003E00002F066F800F0F6FB3B1D184606F05AF8DE
:1003F00000F0B2FF7B68184600F032FF01F026FFE4
:1004000001F0F2FB7B685C33184601F027FB00F03B
:10041000C1F900BF0837BD4680BD00BFB84A002003
:1004200080B500AF10221021044803F033F90022F8
:100430000821024803F02EF900BF80BD00C00D4026
:1004400080B500AF002005F0E7FA05F013F900BF12
:1004500080BD00BF80B500AF3221054803F0A6FB88
:100460004FF6FF71024803F073FB00BF80BD00BF71
:100470000020034080B582B000AFFF21054803F0A3
:1004800021FD03465B097B607B6818460837BD4643
:1004900080BD00BF0020034080B584B000AF78600D
:1004A000FF210A4803F00EFD03465B09FB607A68F2
:1004B000FB68D31ABB60BB68002B01DD002300E0A2
:1004C000012318461037BD4680BD00BF0020034001
:1004D00080B500AF05F0C6F800BF80BD80B500AFA5
:1004E000FF21084803F0ECF8FF21074803F0E8F883
:1004F000FF21064803F0E4F8FF21054803F0E0F887
:1005000000BF80BD00900D4000A00D4000B00D4028
:1005100000C00D4080B582B000AF04F01DF8034666
:10052000FB71002240211A4802F02CFF002280219A
:10053000174802F027FF01224021154804F06AFB0A
:1005400001228021124804F065FB002200210120D5
:1005500004F064FF002005F011F800BF0D4B1B688C
:1005600003F40023002BF9D000F054F800F082F8D7
:1005700000F0B0F800F0DEF8FB7983F00103DBB2A5
:10058000002B01D003F0DCFF00BF0837BD4680BD63
:1005900000C00D4004200D4080B582B000AF4FF682
:1005A000FF737B6002E07B68013B7B607B68002B14
:1005B000F9D12021144802F0F3FF2021124803F062
:1005C0001FF82021104803F07BF8002220210E485C
:1005D00002F040FF082003F097FA20210A4803F0B8
:1005E0000FF80A49084803F01DF82021064803F0D7
:1005F00007F82021044802F0BDFF054B01221A70C4
:1006000000BF0837BD4680BD00C00D404507200033
:10061000B84A002080B500AF002005F049F901205C
:1006200005F046F9032005F043F94FF4807005F01A
:100630003FF940F2011005F03BF940F2012005F0CE
:1006400037F94FF4407005F033F94FF4806005F04E
:100650002FF940F2014005F02BF9022005F004F9D2
:100660004FF4007005F000F94FF4A06005F0FCF8BD
:1006700000BF80BD80B500AF002005F061F901200A
:1006800005F05EF9032005F05BF94FF4807005F08A
:1006900057F940F2011005F053F940F2012005F03E
:1006A0004FF94FF4407005F04BF94FF4806005F0BE
:1006B00047F940F2014005F043F9022005F01CF92A
:1006C0004FF4007005F018F94FF4A06005F014F92C
:1006D00000BF80BD80B500AF002005F079F9012092
:1006E00005F076F9022005F073F9032005F070F9A2
:1006F0004FF4807005F06CF940F2011005F068F9D4
:100700004FF4007005F064F940F2012005F060F943
:100710004FF4407005F05CF94FF4806005F058F933
:1007200040F2014005F054F94FF4A06005F050F993
:1007300000BF80BD80B500AF202003F0E5F900BF09
:1007400080BD00BF80B500AF2021074802F058FFF0
:10075000064B1B7883F00103DBB2002B02D100F0C3
:1007600007F800E000BF80BD00C00D40B84A00207F
:1007700080B500AF03F0F0FE00F03AFC044802F050
:10078000C3FC00F075FC04F06DFF00BF80BD00BF2E
:1007900000F8270080B500AF40F2014005F01EF8D8
:1007A00040F2014005F060F80023184680BD00BF0C
:1007B000F0B58FB008AFF8607A603B600B46FB7213
:1007C0003B681B78002B14BF01230023FB7507F146
:1007D00016031946B86B00F0D7F80346002B41D139
:1007E0003B681B789BB2FA7A92B2B97D3868007880
:1007F00004467868204497F83C60FD7D0024069408
:1008000097F834400594049003910292FA6801929B
:1008100000937B683A6B3146284602F0E9F80346BC
:10082000002B1FD100BF02F0F7F90346002BF9D0CF
:100830003B681B7899B23B681B781A467B681A4460
:1008400097F83C30184602F00BFA0346002B09D10A
:100850003B681A7897F83C301344DAB23B681A7058
:10086000002300E0012318461C37BD46F0BD00BF41
:10087000B0B592B008AFF8607A603B600B46FB728F
:100880003B681B781A4697F84430D31A002BCCBF2C
:100890000123002387F8273007F126031946386C17
:1008A00000F072F80346002B3DD13B681B789BB2E9
:1008B000FA7A92B297F8261097F8445097F82740A2
:1008C0000020069097F83C00059007F11400049072
:1008D00003910292FA68019200937B68BA6B2946F1
:1008E000204602F047FA0346002B1CD100BF02F05D
:1008F0004FFB0346002BF9D03B681B789AB207F1F7
:10090000140397F84400796802F04AFB0346002B71
:1009100009D13B681A7897F84430D31ADAB23B68A9
:100920001A70002300E0012318462837BD46B0BDE9
:1009300080B586B002AF7860396007F10F031946C1
:10094000386800F021F80346002B17D1FA7B00230A
:10095000009301237968786801F058FF0346002B63
:100960000CD100BF01F0D6FF0346002BF9D001F0F7
:10097000F5FF0346002B01D1002300E001231846B8
:100980001037BD4680BD00BF90B583B000AF786022
:100990003960102279680F4805F0BEFD0346002B30
:1009A00010D00C4A7B681446186859689A68DB684E
:1009B0000FC40021074801F069FE0346002B01D057
:1009C000012303E03B6800221A70002318460C370D
:1009D000BD4690BD9042002080B500AF80210E48FA
:1009E00002F084FE08210D4802F080FE0F210C4821
:1009F00002F07CFE00228021074802F04BFE00221C
:100A00000821064802F046FE00220F21044802F0A9
:100A100041FE00BF80BD00BF00900D4000B00D4002
:100A200000A00D4080B500AF8021024800F0B6F86C
:100A300000BF80BD00900D4080B500AF0022802136
:100A4000024802F027FE00BF80BD00BF00900D40AD
:100A500080B500AF80228021024802F01BFE00BF5B
:100A600080BD00BF00900D4080B500AF0821024856
:100A700000F094F800BF80BD00A00D4080B500AF2D
:100A800000220821024802F005FE00BF80BD00BF21
:100A900000A00D4080B500AF08220821024802F0F6
:100AA000F9FD00BF80BD00BF00A00D4080B500AFC4
:100AB0000421024800F072F800BF80BD00A00D4084
:100AC00080B500AF00220421024802F0E3FD00BF20
:100AD00080BD00BF00A00D4080B500AF04220421FE
:100AE000024802F0D7FD00BF80BD00BF00A00D404E
:100AF00080B400AF00BFBD4680BC704780B400AF7B
:100B000000BFBD4680BC704780B400AF00BFBD468B
:100B100080BC704780B500AF0821024800F03EF865
:100B200000BF80BD00B00D4080B500AF002208219D
:100B3000024802F0AFFD00BF80BD00BF00B00D4015
:100B400080B500AF08220821024802F0A3FD00BFD3
:100B500080BD00BF00B00D4080B500AF012102484C
:100B600000F01CF800BF80BD00A00D4080B500AFB4
:100B700000220121024802F08DFD00BF80BD00BFB0
:100B800000A00D4080B500AF01220121024802F013
:100B900081FD00BF80BD00BF00A00D4080B584B0C6
:100BA00000AF78600B46FB70FB781946786802F05E
:100BB0005FFDF860FB68DA43FB781340FB60FB687D
:100BC000DAB2FB781946786802F064FD00BF10378E
:100BD000BD4680BD80B582B000AF4FF4407004F0D8
:100BE00043FE4FF4407004F087FE4FF4407004F071
:100BF000EFFE4FF4407004F0F1FD2021154802F0A3
:100C00008BFD154A2021134803F02AFF0C222021D6
:100C1000104803F0C1FE10210E4802F07DFD0F4A7E
:100C200010210C4803F01CFF0B221021094803F08F
:100C3000B3FE0123FB7104F04FFC0246FB79194619
:100C4000104603F05FFA03F09DFA00BF0837BD4677
:100C500080BD00BF00A00D4030410D402C410D4033
:100C600080B584B000AF03463960FB71144BFB6064
:100C7000FB790121184603F0BBFB072003F0F2FBD0
:100C8000FFF7F8FB0246FB681344FB6007E0F868D7
:100C9000FFF702FC0346002B01D000230BE003F01A
:100CA000BDFB0346002BF2D103F018FC0346DAB279
:100CB0003B681A70012318461037BD4680BD00BF3F
:100CC000801A060090B587B000AF0346B9607A601D
:100CD000FB731D4B7B61FB7B0121184603F088FBF6
:100CE0000B2003F0BFFBFFF7C5FB02467B691344F3
:100CF0007B6121E07869FFF7CFFB0346002B01D031
:100D00007B681DE003F08AFB0346002BF2D1BC6830
:100D1000631CBB6003F0E2FB0346DBB223707B681D
:100D2000013B7B607B68012B03D1052003F09AFB1C
:100D300002E0092003F096FB7B68002BE2D17B6880
:100D400018461C37BD4690BD801A060080B584B099
:100D500000AF03460A46FB711346BB71134BFB60A1
:100D6000FB790021184603F043FBBB79184603F0DA
:100D7000A5FB072003F076FBFFF77CFB0246FB6830
:100D80001344FB6007E0F868FFF786FB0346002B7F
:100D900001D0002305E003F041FB0346002BF2D114
:100DA000012318461037BD4680BD00BF801A0600DB
:100DB00080B586B000AF0346B9607A60FB73294BFB
:100DC0007B61FB7B0021184603F012FBBB685A1CB9
:100DD000BA601B78184603F071FB7B68013B7B60AF
:100DE000032003F03FFBFFF745FB02467B691344FA
:100DF0007B6107E07869FFF74FFB0346002B01D0CA
:100E00007B682BE003F00AFB0346002BF2D121E0C4
:100E1000BB685A1CBA601B78184603F04FFB7B680E
:100E2000012B03D1052003F01DFB0BE0012003F093
:100E300019FB07E07869FFF72FFB0346002B01D071
:100E40007B680BE003F0EAFA0346002BF2D17B68E3
:100E5000013B7B607B68002BDAD17B681846183732
:100E6000BD4680BD801A060080B500AFF021054860
:100E700002F03CFCF022F021024802F00BFC00BF23
:100E800080BD00BF00B00D4080B500AF102000F065
:100E9000A5F900BF80BD00BF80B500AF102000F0F5
:100EA000AFF900BF80BD00BF80B500AF102000F0DB
:100EB000B9F900BF80BD00BF80B582B000AF10217E
:100EC000064802F0D5FB78607B681B11DBB203F0AB
:100ED0000103DBB218460837BD4680BD00B00D40A7
:100EE00080B500AF802000F079F900BF80BD00BF61
:100EF00080B500AF802000F083F900BF80BD00BF47
:100F000080B500AF802000F08DF900BF80BD00BF2C
:100F100080B582B000AF8021064802F0A9FB78605E
:100F20007B685B11DBB203F00403DBB218460837C1
:100F3000BD4680BD00B00D4080B500AF202000F060
:100F40004DF900BF80BD00BF80B500AF202000F08C
:100F500057F900BF80BD00BF80B500AF202000F072
:100F600061F900BF80BD00BF80B582B000AF202115
:100F7000044802F07DFB7860002318460837BD4620
:100F800080BD00BF00B00D4080B500AF402000F034
:100F900025F900BF80BD00BF80B500AF402000F044
:100FA0002FF900BF80BD00BF80B500AF402000F02A
:100FB00039F900BF80BD00BF80B582B000AF4021CD
:100FC000064802F055FB78607B689B11DBB203F0AA
:100FD0000103DBB218460837BD4680BD00B00D40A6
:100FE00080B500AFF02000F0F9F800BF80BD00BF71
:100FF00080B500AFF02000F003F900BF80BD00BF56
:1010000080B500AFF02000F00DF900BF80BD00BF3B
:1010100080B582B000AFF02000F0F2F80023FB7141
:101020001FE0102000F0FEF84FF6FF73BB8004E0D5
:10103000BB889BB2013B9BB2BB80BB889BB2002BA1
:10104000F6D14FF6FF73BB8004E0BB889BB2013B37
:101050009BB2BB80BB889BB2002BF6D1FB790133DE
:10106000FB71FB794F2BDCD900BF0837BD4680BD33
:1010700080B582B000AFF02000F0C2F80023FB7111
:101080004EE0102000F0AAF84FF6FF73BB8007E097
:10109000102000F0B5F8BB889BB2013B9BB2BB802F
:1010A000BB889BB2002BF3D1202000F097F84FF6BD
:1010B000FF73BB8004E0BB889BB2013B9BB2BB804B
:1010C000BB889BB2002BF6D1202000F099F840207D
:1010D00000F084F84FF6FF73BB8004E0BB889BB23E
:1010E000013B9BB2BB80BB889BB2002BF6D140205A
:1010F00000F086F8802000F071F84FF6FF73BB8097
:1011000004E0BB889BB2013B9BB2BB80BB889BB217
:10111000002BF6D1F02000F073F8FB790133FB715E
:10112000FB79092BADD900BF0837BD4680BD00BF94
:1011300080B582B000AFF02000F062F80023FB71B0
:1011400045E0102000F04AF84FF6FF73BB8004E042
:10115000BB889BB2013B9BB2BB80BB889BB2002B80
:10116000F6D1202000F03AF84FF6FF73BB8004E080
:10117000BB889BB2013B9BB2BB80BB889BB2002B60
:10118000F6D1402000F02AF84FF6FF73BB8004E050
:10119000BB889BB2013B9BB2BB80BB889BB2002B40
:1011A000F6D1802000F01AF84FF6FF73BB8004E000
:1011B000BB889BB2013B9BB2BB80BB889BB2002B20
:1011C000F6D1F02000F01CF8FB790133FB71FB79BC
:1011D000092BB6D900BF0837BD4680BD80B582B0A7
:1011E00000AF0346FB71FB7900221946034802F069
:1011F00051FA00BF0837BD4680BD00BF00B00D40AA
:1012000080B582B000AF0346FB71FA79FB791946CD
:10121000034802F03FFA00BF0837BD4680BD00BF5B
:1012200000B00D4080B584B000AF0346FB71FB7980
:1012300019460A4802F01CFAF860FB68DA43FB79A9
:101240001340FB60FB68DAB2FB791946034802F0F1
:1012500021FA00BF1037BD4680BD00BF00B00D4071
:1012600080B483B000AF78607B68244A1A607B68E2
:10127000234A5A607B68234A9A607B68224ADA6074
:101280007B68224A1A617B68214A5A617B68214A3D
:101290009A617B68204ADA617B68204A1A627B681F
:1012A0001F4A5A627B681F4A9A627B681E4ADA624A
:1012B0007B681E4A1A637B681D4A5A637B681D4A15
:1012C0009A637B681C4ADA637B681C4A1A647B68F1
:1012D0001B4A5A647B681B4A9A647B681A4ADA6420
:1012E0007B681A4A1A657B68194A5A657B68194AED
:1012F0009A6500BF0C37BD4680BC7047F9192000C5
:101300005913200095142000B11420006915200005
:101310007515200019152000051A2000191A200043
:10132000CD1420002D1A200015162000351620009F
:101330009D152000451A200085162000511A200016
:10134000A5162000D91620004D182000B119200044
:101350005D1820006D18200080B500AF0C22002120
:10136000354805F00BF9344B00221A72334BED224D
:101370001A60324BED221A60304BEE221A602F4B6E
:10138000EE221A6000F042FA00F024FA2C4B1422EC
:101390001A602C4B3F221A602B4B55221A602B4BA4
:1013A00085221A602A4B01221A602A4B15221A60E4
:1013B000294B10221A60294B0E221A60284B032257
:1013C0001A60284BF8221A60274B09221A60214B19
:1013D00015221A6004230B221A60244BFF221A6084
:1013E000234B40221A60234A224B1B6823F001033F
:1013F0001360214B00221A60204B7F221A60204B81
:10140000D5221A601F4B0B221A601F499D2003F042
:10141000AFF81E499E2003F0ABF89D2003F074F94D
:101420001B4B7F221A609E2003F06EF9024B0122B3
:101430001A7200BF80BD00BFBC4A00203888084037
:10144000A4860840AC860840B0860840A0860840C4
:10145000B8860840C8860840D4860840D886084028
:10146000DC86084058860840E88708409487084092
:1014700024860840008608400886084050860840B8
:10148000408608403C8608408D1820007D192000C9
:101490009486084080B483B000AF7860034A7B68CC
:1014A000136000BF0C37BD4680BC7047BC4A0020AB
:1014B00080B483B000AF7860034A7B68536000BF9C
:1014C0000C37BD4680BC7047BC4A002080B500AFD9
:1014D00000BF0E4B1B6803F00203002BF9D10C4B2D
:1014E000ED221A600A4BED221A60094BEE221A60B7
:1014F000074BEE221A60074B1B68002B02D0044BEF
:10150000EF221A60FFF728FF00BF80BD4C8608401D
:10151000388808402C86084080B582B000AF03466A
:101520003960FB801346BB800D4B02221A7200F01B
:101530006DF9BB880A2B02D9BB881A2B00D9FEE7AC
:101540000849BB88A3F10B0213469B0013440B33DD
:101550000B60034B03221A7200BF0837BD4680BDE3
:10156000BC4A00203C86084080B400AF00BFBD46A6
:1015700080BC704780B500AF074B0D221A7200F097
:1015800045F9FFF7F3FAFFF7DFFC00F023F9024B10
:1015900001221A7200BF80BDBC4A002080B485B011
:1015A00000AF78600B467B800023FB73154B042251
:1015B0001A7200BF144B1B6803F00203002BF9D111
:1015C000124BEE221A60114BEE221A60104A7B88F1
:1015D00013600023FB7308E00D49FB7B7A6813441A
:1015E0001B780B60FB7B0133FB73FB7B9BB27A8820
:1015F0009A42F1D8034B05221A7200BF1437BD4638
:1016000080BC7047BC4A00204C860840388808409F
:101610002888084080B500AF054B06221A72FFF7F4
:10162000B1FAFFF789FC024B07221A7200BF80BD96
:10163000BC4A002080B582B000AF0F4B08221A725E
:1016400000F0B2F800BF0D4B1B6803F00203002B43
:10165000F9D10B4BE9221A6000237B6002E07B6822
:1016600001337B60054B1B6803F00203002BF6D0AF
:1016700000BF0837BD4680BDBC4A00204C860840EC
:101680003888084080B500AF054B09221A72FFF771
:1016900079FAFFF751FC024B0A221A7200BF80BD93
:1016A000BC4A002080B500AF094BED221A60084B00
:1016B000ED221A6000F078F8054BE3221A6000BFB3
:1016C000044B1B6803F00103002BF9D000BF80BD61
:1016D000388808404C86084080B487B000AFF86076
:1016E000B9603B601346FB800023BB752C4B1B6825
:1016F000BB75BB7D5BB2002B06DA2A4BED221A606C
:10170000284BED221A6046E0BB7D042B06D8254B02
:10171000ED221A60234BED221A603CE0BB7D9BB2A8
:10172000FA889A4206D21F4BED221A601D4BED2219
:101730001A6030E00023FB7509E0FB7DFA68134472
:10174000174A1268D2B21A70FB7D0133FB75FA7D1D
:10175000BB7D023B9A42F0DB114B1B68DBB2493B7D
:10176000DBB2DAB23B681A700D4B1B687B757B7D70
:1017700003F08003002B14BF01230023DAB27B6A3D
:101780001A70BB7D9AB2BB681A80064BED221A60B4
:10179000044BED221A601C37BD4680BC704700BF69
:1017A000288808403888084080B400AF074A074BB3
:1017B0001B6843F007031360054A054B1B6843F0A1
:1017C0000203136000BFBD4680BC70478C86084092
:1017D0009086084080B400AF044B00221A60044B8E
:1017E00000221A6000BFBD4680BC70478C8608404E
:1017F0009086084080B400AF034BE3221A6000BF1C
:10180000BD4680BC704700BF3888084080B400AF38
:1018100000BF0A4B1B6803F00203002BF9D1084BF1
:101820001B68002B06D0074BEF221A60064B6FF0A7
:1018300044021A6000BFBD4680BC70474C86084019
:101840002C860840388808403488084080B400AFAF
:1018500002231846BD4680BC704700BF80B400AF6D
:101860000C231846BD4680BC704700BF80B400AF53
:1018700000231846BD4680BC704700BF80B400AF4F
:1018800000231846BD4680BC704700BF80B582B0BB
:1018900000AFFFF755F900F0ABFC03463B60344B5B
:1018A0001B68FB71334B1B68BB719D2002F0FEFF70
:1018B0002F4B00221A602F4B00221A60FB7903F095
:1018C0000203002B0FD02C4B0B221A722A4B1B68E1
:1018D000002B07D0284B1B683A6810469847FFF743
:1018E00023F942E0FEE7FB7903F04003002B0FD021
:1018F000214B0C221A72204B5B68002B07D01E4B29
:101900005B683A6810469847FFF70EF92DE0FEE74E
:10191000FB7903F00403002B0FD0174B0C221A7233
:10192000154B5B68002B07D0134B5B683A68104679
:101930009847FFF7F9F818E0FEE7BB7903F00203D8
:10194000002B0FD00C4B0C221A720B4B5B68002B38
:1019500007D0094B5B683A6810469847FFF7E4F8F0
:1019600003E0FEE7FFF7E0F800BF0837BD4680BDA3
:101970003488084030880840BC4A002080B483B0D6
:1019800000AF0A4B1B68FB71084B1A68FB791340C8
:1019900003F00203002B03D0044B6FF002021A6025
:1019A00000BF0C37BD4680BC704700BF948608401E
:1019B00080B483B000AF3B600346FB710B46BB7144
:1019C00013467B713B7C002B01D0FB790EE0BA798A
:1019D000FB7913447A7993FBF2F102FB01F29B1A33
:1019E0001A463B6813441B780B33DBB218460C379E
:1019F000BD4680BC704700BF80B400AF00BFBD468D
:101A000080BC704780B483B000AF786000BF0C37F3
:101A1000BD4680BC704700BF80B483B000AF786023
:101A200000BF0C37BD4680BC704700BF80B483B098
:101A300000AF78600B46FB7000BF0C37BD4680BC22
:101A4000704700BF80B400AF00BFBD4680BC704788
:101A500080B400AF00BFBD4680BC704780B483B087
:101A600000AF78607B68264ADA617B68254A1A6095
:101A70007B68254A5A607B68244A9A607B68244ABE
:101A8000DA607B68234A1A617B68234A5A617B6863
:101A9000224A9A617B681A4ADA617B68204A1A6294
:101AA0007B68204A5A627B681F4A9A627B681F4A99
:101AB000DA627B681E4A1A637B681E4A5A637B6837
:101AC0001D4A9A637B681D4ADA637B681C4A1A6464
:101AD0007B681C4A5A647B681B4A9A647B681B4A71
:101AE000DA647B681A4A1A657B681A4A5A657B6809
:101AF000194A9A6500BF0C37BD4680BC704700BFCD
:101B00000D1D20005D1B2000E91B20006D1D200025
:101B1000891D20002D1E20003D1E2000A51D200037
:101B2000C51C2000D91B20002D212000A91E20004B
:101B3000C91E2000651E200045212000091F20002D
:101B400051212000311F2000491F2000A91F200023
:101B5000E5202000B91F2000C91F200080B582B0F9
:101B600000AF01211A4801F0C1FD0221194801F01E
:101B7000BDFD00220121164801F08CFD002202214A
:101B8000144801F087FD00237B6002E07B6801338D
:101B90007B607B684AF2C1229342F7D9012201217E
:101BA0000B4801F077FD00237B6002E07B68013386
:101BB0007B607B684AF2C1229342F7D9022202215C
:101BC000044801F067FD00BF0837BD4680BD00BF77
:101BD00000B00D4000C00D4080B500AF07210520CA
:101BE00004F0F4FA00BF80BD90B583B000AFFFF7FA
:101BF000B5FF102200212F4804F0C0FC2D4B00221D
:101C00001A72FFF7E9FF022004F0C4FA00BF04F0E3
:101C1000BDFB0346022BFAD1264B01221A72012189
:101C2000254801F0BDFC0121234801F049FD0422B3
:101C30000121214801F00EFC01211F4801F0E0FCC8
:101C40001E491D4801F0EEFC01211B4801F092FCE9
:101C50000D2004F0E3FA0346342B14BF01230023C4
:101C6000DCB20E2004F0DAFA0346032B14BF012382
:101C70000023DBB22343DBB2002B00D0FEE70023BE
:101C8000FB800EE0FB880E4A32F82300FB880C4AEA
:101C90009B0013449B78194604F098FAFB880133A3
:101CA000FB80FB880E2BEDD900F096F900BF0C37B6
:101CB000BD4690BDC84A002000C00D400D20200048
:101CC000A869200080B483B000AF78600C4B1A681C
:101CD0000C4B1340002B03DA013B63F00303013389
:101CE0001A46094B33F812207B681A80044B1B6894
:101CF0000133034A136000BF0C37BD4680BC7047F8
:101D0000A0420020030000801C6E200080B584B03B
:101D100000AF7860022004F03DFA00BF04F036FB0B
:101D20000346022BFAD10023FB810FE0FB899B00C5
:101D30007A6813441888FB899B007A6813449B785F
:101D4000194604F043FAFB890133FB81FB89002B20
:101D5000ECD000F041F9044B1B680133024A1360D8
:101D600000BF1037BD4680BD8C42002080B483B0D8
:101D700000AF7860034A7B68136000BF0C37BD4634
:101D800080BC7047C84A002080B483B000AF786040
:101D9000034A7B68536000BF0C37BD4680BC704768
:101DA000C84A002080B582B000AF03463960FB808E
:101DB0001346BB803B681B4AA2FB0323DB083B6046
:101DC000FB88184AA2FB0323DB089BB2DBB219464F
:101DD0004FF4827004F0FAF93B68DBB2194640F226
:101DE000051004F0F3F93B681B0ADBB219464FF407
:101DF000837004F0EBF9BB88DBB2194640F20710A0
:101E000004F0E4F9BB881B0A9BB2DBB219464FF41D
:101E1000847004F0DBF9044B03221A7200BF083708
:101E2000BD4680BD1F85EB51C84A002080B500AF7C
:101E3000022004F0AFF900BF80BD00BF80B500AF45
:101E4000074B0D221A72022004F0A4F9FEF78EFE51
:101E5000FFF7A2F8024B01221A7200BF80BD00BF3B
:101E6000C84A002080B582B000AF78600B467B8006
:101E7000074B04221A727B881946786804F0F2F93D
:101E8000034B05221A7200BF0837BD4680BD00BF54
:101E9000C84A002080B400AF024B1B7A1846BD46EA
:101EA00080BC7047C84A002080B500AF054B0622B1
:101EB0001A72032004F06EF9FEF764FEFFF764F86F
:101EC00000BF80BDC84A002080B582B000AF0D4B76
:101ED0001B7A072B11D10B4B08221A72042004F035
:101EE00059F9084B1B68002B08D000F081F9786085
:101EF000044B1B687868984700E000BF0837BD4670
:101F000080BD00BFC84A002080B500AF074B092242
:101F10001A72FEF737FEFFF737F8052004F03AF99A
:101F2000024B0A221A7200BF80BD00BFC84A0020BF
:101F300080B500AF04F02AFA0346052B02D0FEF765
:101F4000B3FF00BF80BD00BF80B584B000AFF860B4
:101F5000B9603B601346FB80B968F86804F0C8F9C3
:101F60004FF4887004F05AF90346DAB23B681A70ED
:101F700040F2013004F052F903465B09DBB2002B5A
:101F800014BF01230023DAB2FB691A7040F20D304E
:101F900004F044F9034603F00703DAB23B6A1A700F
:101FA00000BF1037BD4680BD80B400AF0423184683
:101FB000BD4680BC704700BF80B400AF28231846E0
:101FC000BD4680BC704700BF80B400AF00231846F8
:101FD000BD4680BC704700BF80B582B000AF3B1DDE
:101FE000184604F0EFF93A79074B5A727A79064BA2
:101FF0009A72BA79044BDA72FA79034B1A7300BFFA
:102000000837BD4680BD00BFC84A002080B582B0F9
:1020100000AFFEF795FD0121264801F0F1FA00F02E
:10202000E7F87860FFF7D8FF234B5B7A03F00203F1
:10203000002B02D0204B07221A721F4BDB7A03F0D1
:102040000103002B0BD01C4B0B221A721A4B1B687E
:10205000002B27D0184B1B687868984722E0164B56
:10206000DB7A03F01003002B0BD0134B0C221A72F7
:10207000114B5B68002B15D00F4B5B687868984755
:1020800010E00D4BDB7A03F00203002B0AD00A4B61
:102090000C221A72084B5B68002B03D0064B5B685E
:1020A0007868984700F00AF8FEF73EFD00BF083751
:1020B000BD4680BD00C00D40C84A002080B400AFBE
:1020C000074B00225A72064B00229A72044B0022E0
:1020D000DA72034B00221A7300BFBD4680BC704702
:1020E000C84A002080B483B000AF3B600346FB7158
:1020F0000B46BB7113467B713B7C002B01D0002348
:102100000FE0BA79FB7913447A7993FBF2F102FB81
:1021100001F29B1A1A463B6813441B7803F0030331
:10212000DBB218460C37BD4680BC704780B483B024
:1021300000AF78600B46FB7000BF0C37BD4680BC1B
:10214000704700BF80B400AF00BFBD4680BC704781
:1021500080B400AF00BFBD4680BC704780B500AF03
:1021600004220021054804F009FA0549A12002F0E3
:10217000FFF9A12002F012FB00BF80BDD84A002069
:102180002122200080B483B000AF7860034A7B68CE
:10219000136000BF0C37BD4680BC7047D84A002092
:1021A00080B582B000AF7860A12002F0ADFA02F0F5
:1021B000C9FE02467B68D31A0C4A934203D8A12079
:1021C00002F036FB0DE002F0BDFE02467B689B1A72
:1021D000092B03D8A12002F02BFB02E0786802F063
:1021E000F3FE00BF0837BD4680BD00BFFEFFFF0005
:1021F00080B500AF02F0A6FE0346184680BD00BFC2
:1022000080B500AFA12002F07FFA00BF80BD00BF03
:1022100080B500AFA12002F0C1FA00BF80BD00BFB1
:1022200080B500AFFEF78CFC074B1B68002B07D076
:10223000A12002F03BFB044B1B689847FEF774FC9F
:10224000FEF772FC00BF80BDD84A002080B582B086
:1022500002AF182200212F4804F090F904212E48E3
:1022600001F044FA20212C4801F040FA08212A48C4
:1022700001F03CFA08220821274801F00BFA00225D
:102280002021254801F006FA00220421224801F00D
:1022900001FA4FF4807003F0E7FA4FF4807003F016
:1022A0002BFB4FF4807003F093FB1C4802F066FF99
:1022B00001211A4803F094F804220421164802F080
:1022C0006BFB03222021144802F066FB144A102104
:1022D000114802F0C5FB04210F4801F033FA102128
:1022E0000D4801F02FFA20210B4801F02BFA03F0E2
:1022F0005FF90146082301930A4B00930023002253
:10230000064802F0DBFE054802F026FF00BFBD468E
:1023100080BD00BFDC4A002000900D4000800040DE
:1023200010410D400024F40080B586B000AFF86085
:102330007B600B467B8113467B720222022132486E
:1023400001F0A8F9314AFB681360304B00229A80F3
:102350002E4A7B89D3802D4A7B7A13722B4A7B6865
:10236000D3602A4A3B8C1382284A97F8243093740E
:10237000264A97F82830D374244B01221A75234B30
:102380009B7C012B04D100220821214801F082F915
:1023900000237B611FE01D4B1A687B6913441B7887
:1023A00019461C4802F07CFF00BF1A4803F004F8ED
:1023B0000346002BF9D107F110031946154802F026
:1023C000A1FF124BDA687B6913443A69D2B21A70E2
:1023D0007B6901337B617A897B699A42DBD80B4B3D
:1023E000DB7C012B04D108220821094801F052F9B5
:1023F000064B00221A7500220221034801F04AF917
:1024000000BF1837BD4680BD00A00D40DC4A00204B
:1024100000900D400080004080B400AF00231846BB
:10242000BD4680BC704700BF80B500AF00F00AF821
:10243000FEE700BF80B400AFFEE700BF80B400AF8E
:10244000FEE700BF80B582B000AF114BFF221A60DB
:10245000104B114A1A60114B7B60114B3B6007E037
:102460003B681A1D3A607A68111D796012681A601B
:102470003B680C4A9342F3D30B480C494FF00002DF
:102480008842B8BF40F8042BFADBFDF78BFFFEE76C
:10249000B4200D4008ED00E000002000FF7820008F
:1024A000004000209042002090420020B44B0020C9
:1024B00080B500AF082200211E4804F05FF81E48D6
:1024C00003F0C6FB41F6FF711B4803F05BFD0121E1
:1024D000194803F0D5FD00220221184802F05CFAE9
:1024E0000221164801F070F9154A0121134802F043
:1024F000B7FA0121114801F051F903F059F80146EA
:1025000060234FF4E1320C4803F00AFB0A4803F061
:1025100081FB094803F0D4FB1021074803F016FCA7
:102520000849054803F0E8FC152002F0EDF800BF6B
:1025300080BD00BFF44A002000C0004000900D4064
:1025400000410D40FD25200080B483B000AF7860CD
:102550003960054A7B681360034A3B68536000BFDB
:102560000C37BD4680BC7047F44A002080B500AFF0
:102570007021024803F0F2FC00BF80BD00C00040A3
:1025800080B500AF7021024803F0FCFC00BF80BDA5
:1025900000C0004080B500AF5021024803F01CFD90
:1025A00000BF80BD00C0004080B500AF20210248C0
:1025B00003F012FD00BF80BD00C0004080B582B0B6
:1025C00000AF0346FB71FB791946034803F04CFC4E
:1025D00000BF0837BD4680BD00C0004080B582B056
:1025E00000AF054803F014FC78607B68DBB2184646
:1025F0000837BD4680BD00BF00C0004080B582B036
:1026000000AFFEF79DFA01210F4803F0CFFC786080
:10261000152002F04BF97B6803F02003002B01D05A
:1026200000F014F87B6803F01003002B04D17B68E2
:1026300003F04003002B01D000F018F8FEF774FA05
:1026400000BF0837BD4680BD00C0004080B500AF68
:10265000FFF7AAFF044B1B68002B02D0024B1B683C
:1026600098470023184680BDF44A002080B500AF8B
:10267000FFF790FF044B5B68002B02D0024B5B68B6
:1026800098470023184680BDF44A002080B584B0E6
:1026900000AF78600B46FB704F4BBB604F4B012285
:1026A0001A700023FB730AE0FB7BBA681344FA7BC1
:1026B00079680A4412781A70FB7B0133FB73FB7B49
:1026C0000F2BF1D99F2002F069F8454A444B1B6853
:1026D00043F001031360434A424B1B6843F003037A
:1026E0001360414A404B1B6823F0010313603E4ACC
:1026F0003D4B1B6843F0010313603C4A3B4B1B6896
:1027000043F0030313603A4A394B1B6803F0030399
:102710001360374A364B1B6843F001031360354A98
:10272000FB78012101FA03F31360334A324B1B6833
:1027300043F001031360314ABB681360304B102231
:102740001A6000BF2F4B1B6803F00103002BF8D069
:102750002C4B1B68002B07DA244A244B1B6843F0E0
:1027600000431360032333E0264B1B6803F08043D0
:10277000002B07D01D4A1D4B1B6843F0804313609C
:10278000022325E0194A194B1B6843F00303136029
:10279000154B00221A601C4B1B6803F00703012B2A
:1027A00004D00E4B00221A70022311E00023FB73A9
:1027B00007E0FB7BBA68134400221A70FB7B0133ED
:1027C000FB73FB7B0F2BF4D9044B00221A70002300
:1027D00018461037BD4680BDA84A0020A44A0020F4
:1027E00080B7084084B7084000B7084088B7084061
:1027F00008B4084000B4084000B0084004B00840E5
:102800000CB0084090B7084004B4084080B584B0CC
:1028100000AFF860B96011461A460B46FB711346CB
:10282000BB712C4B02221A702B4B01221A602B4BCE
:1028300001221A603B7E002B05D09F2002F036F863
:102840009F2001F061FF264B02221A60254A254B8A
:102850001B6843F003031360234AFB79136000BF36
:10286000214B1B68002BFADB204B1B6803F0005345
:10287000002B07D01B4A1B4B1B6843F0005313600F
:10288000012322E0BB79002B03D0194B0C221A60E4
:1028900002E0174B08221A60164B10221A60164BE2
:1028A00000221A60154B01221A60154AFB6813605A
:1028B000144B10221A60144B01221A60134ABB6891
:1028C0001360134B10221A60002318461037BD46C0
:1028D00080BD00BFA44A002080B7084084B70840EC
:1028E00000B7084088B708400CB4084090B70840CB
:1028F00050B5084054B5084058B5084000B00840ED
:1029000004B008400CB0084020B0084024B0084093
:102910002CB0084080B400AF0F4B1B78DBB203F043
:102920000103002B0FD10C4B1B780B4B1B78DBB238
:1029300003F08043002B06D1074B1B78DBB203F07A
:102940000053002B01D0012300E00023DBB2184626
:10295000BD4680BC704700BF90B7084080B500AF4F
:102960001E4B1B68002B07DA1D4A1D4B1B6843F0EA
:102970000043136003232EE0184B1B6803F08043D1
:10298000002B07D0164A164B1B6843F08043136098
:10299000022320E0114B1B6803F00053002B07D0EB
:1029A0000F4A0F4B1B6843F000531360012312E0E2
:1029B0009F2001F0F3FE0A4A094B1B6843F0030312
:1029C0001360084B00221A60074B00221A60074B65
:1029D00000221A700023184680BD00BF90B708403F
:1029E00088B7084000B7084050B50840A44A002006
:1029F00080B58AB000AFBA607B600346FB730B46BC
:102A0000BB73704B03221A709F2001F0C7FE6E4B00
:102A100001221A606D4B03221A606D4B02221A606C
:102A20006C4A6C4B1B6843F0030313606A4A97F8C7
:102A30003C30136000BF684B1B68002BFADB674B10
:102A40001B6803F00053002B07D0624A614B1B68E0
:102A500043F0005313600123AFE097F84430013B8B
:102A6000DBB23B74002387F8233011E097F8233062
:102A7000013397F82320B9680A44127807F1280136
:102A80000B4403F8182C97F82330013387F82330D0
:102A900097F823300C2BE9D997F84430032B01D158
:102AA00000237B770023BB770023FB774C4A07F199
:102AB00010031B6813604B4A7B6913604A4ABB6969
:102AC00013604A4AFB69136097F84430013BDB040A
:102AD0007B62BB7B012B07D9BB7B023B5B109B0559
:102AE0001A467B6A13437B627B6A43F480237B62D2
:102AF0007B6A43F008037B627B6A43F004037B62DA
:102B00007B6A43F040037B627B6A43F000537B6245
:102B10007B6A43F4C0737B62354A7B6A1360354A33
:102B20003B8E1360344B00221A60344A3B8F136093
:102B30003B8F002B1BD0324B01221A60314A7B6B3A
:102B40001360314A3B8F136000BF244B1B6803F0B6
:102B50000203002BF8D0214B1B68002B07DA1D4A1B
:102B60001C4B1B6843F000431360032325E0194B03
:102B700003221A6097F84830002B05D09F2001F0FF
:102B800095FE9F2001F0C0FD104B01221A60FB7BD7
:102B9000002B11D01A4B01221A601A4A7B6813606D
:102BA000194A3B8E1360194B01221A60184A7B6840
:102BB0001360184A3B8E1360002318462837BD4621
:102BC00080BD00BFA44A002080B7084084B70840F9
:102BD00000B7084088B708400CB4084090B70840D8
:102BE00040B5084044B5084048B508404CB50840D9
:102BF00050B5084054B5084058B508405CB5084089
:102C000000B0084004B008400CB0084020B00840B4
:102C100024B008402CB0084080B400AF0F4B1B78A4
:102C2000DBB203F00103002B0FD10C4B1B780B4BD5
:102C30001B78DBB203F08043002B06D1074B1B78D7
:102C4000DBB203F00053002B01D0012300E000238E
:102C5000DBB21846BD4680BC704700BF90B7084045
:102C600080B588B000AF03463A60FB710B46BB806D
:102C7000374B1B68002B07DA364A364B1B6843F08C
:102C80000043136003235EE0314B1B6803F0804375
:102C9000002B07D02F4A2F4B1B6843F08043136053
:102CA000022350E02A4B1B6803F00053002B07D08F
:102CB000284A284B1B6843F000531360012342E06D
:102CC0009F2001F06BFD244B00221A6000BF234BB4
:102CD0001B6803F08043002BF8D007F10C03204A57
:102CE00012681A6007F10C0304331E4A12681A6056
:102CF00007F10C0308331C4A12681A6007F10C0331
:102D00000C331A4A12681A60124A124B1B6843F0BD
:102D1000030313600023FB770DE0FB7F3A68134445
:102D2000FA7F07F120010A4412F8142CD2B21A706B
:102D3000FB7F0133FB77FA7FFB799A42EDD30C4B93
:102D400000221A70002318462037BD4680BD00BF00
:102D500090B7084088B7084000B7084050B5084011
:102D600070B5084074B5084078B508407CB5084097
:102D7000A44A002080B58AB000AFBA607B600346E9
:102D8000FB730B46BB73BB7B9BB23A8ED31A3B845F
:102D90006A4B03221A706A4B01221A60694B0322A4
:102DA0001A60694B02221A60684B03221A60684A53
:102DB00097F83C30136000BF654B1B68002BFADBB3
:102DC000644B1B6803F00053002B07D05F4A5F4B36
:102DD0001B6843F0005313600123ABE097F84430C5
:102DE000013BDBB23B74002387F8233011E097F8F6
:102DF0002330013397F82320B9680A44127807F189
:102E000028010B4403F8182C97F82330013387F876
:102E1000233097F823300C2BE9D997F84430032B53
:102E200001D100237B770023BB770023FB774A4A3D
:102E300007F110031B681360484A7B691360484A16
:102E4000BB691360474AFB69136097F84430013B44
:102E5000DB047B62BB7B012B07D9BB7B023B5B1096
:102E60009B051A467B6A13437B627B6A43F480238B
:102E70007B627B6A43F008037B627B6A43F040031A
:102E80007B627B6A43F000537B627B6A43F4C073CE
:102E90007B62354A7B6A1360344A3B8C1360344B47
:102EA00000221A60334A3B8F13603B8F002B1BD0EC
:102EB000314B01221A60314A7B6B1360304A3B8FE1
:102EC000136000BF234B1B6803F00203002BF8D0F4
:102ED000204B1B68002B07DA1C4A1C4B1B6843F075
:102EE00000431360032325E0184B03221A6097F870
:102EF0004830002B05D09F2001F0D8FC9F2001F026
:102F000003FC104B01221A60FB7B002B11D01A4BE3
:102F100001221A60194A7B681360194A3B8C1360BE
:102F2000184B01221A60184A7B681360174A3B8CC1
:102F30001360002318462837BD4680BDA44A0020F0
:102F400080B7084084B7084000B7084088B70840F9
:102F50000CB4084090B7084040B5084044B508405C
:102F600048B508404CB5084050B5084054B5084035
:102F700058B508405CB5084000B0084004B00840AF
:102F80000CB0084020B0084024B008402CB00840E5
:102F900080B500AFFFF740FE0346184680BD00BF76
:102FA00080B58AB000AFB9607B600346FB731346FF
:102FB000BB81FB7B9BB2BA89D31ABB84494B1B688C
:102FC000002B07DA484A484B1B6843F00043136064
:102FD000032383E0434B1B6803F08043002B07D09F
:102FE000414A414B1B6843F080431360022375E064
:102FF0003C4B1B6803F00053002B07D03A4A3A4B76
:103000001B6843F000531360012367E09F2001F029
:10301000C5FB364B00221A6000BF354B1B6803F01E
:103020008043002BF8D007F11403324A12681A606B
:1030300007F114030433304A12681A6007F11403CD
:1030400008332E4A12681A6007F114030C332C4A15
:1030500012681A60244A244B1B6843F00303136070
:10306000002387F8273011E097F827307A68134457
:1030700097F8272007F128010A4412F8142CD2B23D
:103080001A7097F82730013387F8273097F82720F0
:10309000FB7B9A42E8D3002387F8263015E097F8A7
:1030A00026307A6813441A78B98C97F826300B4486
:1030B0001946BB680B441B789A4201D004230DE0EB
:1030C00097F82630013387F8263097F82620FB7BC7
:1030D0009A42E4D30B4B00221A700023184628377B
:1030E000BD4680BD90B7084088B7084000B708408B
:1030F00050B5084070B5084074B5084078B5084030
:103100007CB50840A44A002080B584B000AF786048
:103110000023FB6000F076F8B8604823DB684FF4CA
:10312000006178689847F860B86800F077F8FB6845
:1031300018461037BD4680BD80B584B000AF00236F
:10314000FB6000F08DF8034603F2FE739B02BB6048
:1031500000F058F878604823DB684FF40061B868E5
:103160009847F860786800F059F8FB6818461037FF
:10317000BD4680BD80B586B000AFF860B9607A60AA
:1031800000237B6100F03EF8386148231B697A68B0
:10319000B968F86898477861386900F03FF87B694A
:1031A00018461837BD4680BD80B586B000AFF860C0
:1031B000B9607A6000237B6100F024F8386148230D
:1031C0001B697A68B968F86898477861064A064BBF
:1031D0001B6823F400731360386900F01FF87B69E3
:1031E00018461837BD4680BD08300D4080B483B006
:1031F00000AF78607B681B6818460C37BD4680BC02
:10320000704700BF80B400AF034B1B6803F00C0392
:103210001846BD4680BC704708300D4080B485B06C
:1032200000AF78600123FB6006E00C4B1B68BB60BD
:10323000BB6803F08003FB60FB68002BF5D1BB6823
:1032400023F00C03BB600549BA687B6813430B602D
:1032500000BF1437BD4680BC704700BF08300D402A
:1032600080B483B000AF1A4B1B683B603B681B09FE
:1032700003F007033B603B68042B1FD801A252F800
:1032800023F000BFB7322000B1322000A932200065
:10329000A1322000993220004FF400737B6010E0CF
:1032A0004FF4C0737B600CE04FF480737B6008E0E8
:1032B00080237B6005E040237B6002E040237B604D
:1032C00000BF7B6818460C37BD4680BC704700BF06
:1032D00014300D4080B483B000AF104B1B683B60CE
:1032E0003B68DB0903F007033B603B68012B06D01A
:1032F000012B07D3042B08D120237B6008E008238F
:103300007B6005E010237B6002E020237B6000BF30
:103310007B6818460C37BD4680BC704714300D40A2
:1033200080B485B000AF78607B68124A934210D0B9
:10333000104A934203D8104A934207D012E00F4A32
:10334000934209D00E4A934209D00BE01023FB6050
:103350000AE01123FB6007E01223FB6004E0132363
:10336000FB6001E0002300E0FB6818461437BD460F
:1033700080BC704700A00D4000900D4000B00D4093
:1033800000C00D4080B485B000AFF8600B467A6095
:10339000FB72FB6803F5806319467B6803F0010349
:1033A000002B06D0FB6803F580631A68FB7A134391
:1033B00006E0FB6803F580631B68FA7AD24313408A
:1033C0000B60FB6803F5846319467B6803F0020316
:1033D000002B06D0FB6803F584631A68FB7A13435D
:1033E00006E0FB6803F584631B68FA7AD243134056
:1033F0000B6000BF1437BD4680BC704780B485B0F9
:1034000000AF78600B46FB70FB78012202FA03F3F1
:10341000FB707B6803F580631B68FB607B6803F5CA
:1034200084631B68BB60FA78FB681340002B14BFF1
:1034300001230023DBB21946FA78BB681340002B46
:1034400001D0022300E000230B4318461437BD4689
:1034500080BC704780B485B000AFF8600B467A60DE
:10346000FB72FB6803F5816319467B6803F0010377
:10347000002B06D0FB6803F581631A68FB7A1343BF
:1034800006E0FB6803F581631B68FA7AD2431340B8
:103490000B60FB6803F2044319467B6803F00203E8
:1034A000002B06D0FB6803F204431A68FB7A13432F
:1034B00006E0FB6803F204431B68FA7AD243134028
:1034C0000B60FB6803F20C4319467B6803F00403AE
:1034D000002B06D0FB6803F20C431A68FB7A1343F7
:1034E00006E0FB6803F20C431B68FA7AD2431340F0
:1034F0000B6000BF1437BD4680BC704780B487B0F6
:1035000000AF78600B46FB70FB78012202FA03F3F0
:10351000FB707B6803F581631B687B617B6803F24A
:1035200004431B683B617B6803F20C431B68FB6030
:10353000FA787B691340002B14BF01230023DBB210
:103540001946FA783B691340002B01D0022300E0B2
:10355000002341EA0302F978FB680B40002B01D0FD
:10356000042300E00023134318461C37BD4680BCEB
:10357000704700BF80B483B000AF78600B46FB702B
:103580007B6803F5826319467B6803F582631A68DA
:10359000FB7813430B6000BF0C37BD4680BC7047FF
:1035A00080B483B000AF78600B46FB707B6803F596
:1035B000826319467B6803F582631B68FA78D243FD
:1035C00013400B6000BF0C37BD4680BC704700BF86
:1035D00080B483B000AF78600B46FB70FB78002BA3
:1035E00004D07B6803F583631B6803E07B6803F208
:1035F00014431B6818460C37BD4680BC704700BF9B
:1036000080B483B000AF78600B46FB707B6803F238
:103610001C431A46FB78136000BF0C37BD4680BCC4
:10362000704700BF80B582B000AF786039607868BD
:10363000FFF776FE78603968786800F099FF78685F
:1036400001F062F800BF0837BD4680BD80B582B08A
:1036500000AF78607868FFF763FE7860786801F003
:103660009DF8786800F0B6FF00BF0837BD4680BD02
:1036700080B483B000AF78600B46FB70FB789B0092
:103680001A467B6813441B6818460C37BD4680BC3D
:10369000704700BF80B483B000AF78600B46FB700A
:1036A0001346BB70FB789B001A467B6813441A468E
:1036B000BB78136000BF0C37BD4680BC704700BFAD
:1036C00080B582B000AF78600B46FB70FB780022BB
:1036D00019467868FFF756FEFB780022194678688D
:1036E00001F098FA00BF0837BD4680BD80B582B0B2
:1036F00000AF78600B46FB70FB78012219467868B2
:10370000FFF740FEFB7800221946786801F082FA44
:1037100000BF0837BD4680BD80B582B000AF78607D
:103720000B46FB70FB78022219467868FFF72AFEE9
:10373000FB7800221946786801F06CFA00BF083760
:10374000BD4680BD80B582B000AF78600B46FB708F
:10375000FB78022219467868FFF714FEFB780022F6
:103760001946786801F056FA00BF0837BD4680BD9B
:1037700080B582B000AF78600B46FB70FB78022208
:1037800019467868FFF7FEFDFB7800221946786835
:1037900001F040FA00BF0837BD4680BD80B582B059
:1037A00000AF78600B46FB70FB7802221946786800
:1037B000FFF7E8FDFB7800221946786801F02AFA45
:1037C00000BF0837BD4680BD80B582B000AF7860CD
:1037D0000B46FB70FB78022219467868FFF7D2FD92
:1037E000FB7808221946786801F014FA00BF083700
:1037F000BD4680BD80B487B000AFF8600B467A60EC
:10380000FB7200237B61FB681D4A934201D10023B8
:103810007B61FB681B4A934201D108237B61FB68F3
:10382000194A934201D110237B61FB68174A9342E6
:1038300001D118237B61FA7A7B6902FA03F33B61B9
:103840007B68012B0BD1FB6803F204731946FB68FC
:1038500003F204731A683B6913430B600BE0FB68C7
:1038600003F204731946FB6803F204731A683B6998
:10387000DB4313400B6000BF1C37BD4680BC704764
:1038800000900D4000A00D4000B00D4000C00D4064
:1038900080B485B000AF78600B46FB700023FB60FE
:1038A0007B68174A934201D10023FB607B68154A6D
:1038B000934201D10823FB607B68134A934201D1F4
:1038C0001023FB607B68114A934201D11823FB60EF
:1038D000FA78FB681344012202FA03F3BB607B68A9
:1038E00003F204731A68BB681340002B01D0012354
:1038F00000E0002318461437BD4680BC704700BF67
:1039000000900D4000A00D4000B00D4000C00D40E3
:1039100080B485B000AF78600B46FB700023FB607D
:103920007B68164A934201D10023FB607B68144AEE
:10393000934201D10823FB607B68124A934201D174
:103940001023FB607B68104A934201D11823FB606F
:10395000FA78FB6802FA03F3BB607B6803F5E26365
:1039600019467B6803F5E2631A68BB6813430B6072
:1039700000BF1437BD4680BC704700BF00900D40AB
:1039800000A00D4000B00D4000C00D4080B485B0D7
:1039900000AF78600B46FB700023FB607B68164A23
:1039A000934201D10023FB607B68144A934201D10A
:1039B0000823FB607B68124A934201D11023FB600D
:1039C0007B68104A934201D11823FB60FA78FB68A8
:1039D00002FA03F3BB607B6803F5E26319467B6878
:1039E00003F5E2631A68BB68DB4313400B6000BF5A
:1039F0001437BD4680BC704700900D4000A00D40BC
:103A000000B00D4000C00D4080B485B000AF7860BC
:103A10000B46FB700023FB607B68184A934201D180
:103A20000023FB607B68164A934201D10823FB60A8
:103A30007B68144A934201D11023FB607B68124AD1
:103A4000934201D11823FB60FB78002B08D07B68E0
:103A500003F5E3631A68FB6822FA03F3DBB207E0BD
:103A60007B6803F5E4631A68FB6822FA03F3DBB2B0
:103A700018461437BD4680BC704700BF00900D400B
:103A800000A00D4000B00D4000C00D4080B485B0D6
:103A900000AF78600B46FB700023FB607B68164A22
:103AA000934201D10023FB607B68144A934201D109
:103AB0000823FB607B68124A934201D11023FB600C
:103AC0007B68104A934201D11823FB60FA78FB68A7
:103AD00002FA03F3BB607B6803F5E36319467B6876
:103AE00003F5E3631A68BB6813430B6000BF143728
:103AF000BD4680BC704700BF00900D4000A00D4047
:103B000000B00D4000C00D4080B483B000AF7860BD
:103B10000549054B1A687B6813430B6000BF0C37DF
:103B2000BD4680BC704700BF94200D4080B483B078
:103B300000AF78600549054B1A687B68DB4313408A
:103B40000B6000BF0C37BD4680BC704794200D4011
:103B500080B483B000AF786039607B680C3318465E
:103B60007B680C331A68396840F201130B40134329
:103B7000036000BF0C37BD4680BC704780B483B083
:103B800000AF786039607B680C3318467B680C3373
:103B90001A68396840F201130B40DB43134003609D
:103BA00000BF0C37BD4680BC704700BF80B483B0F7
:103BB00000AF786039607B680C331A467B680C3341
:103BC0001B6823F4807323F0010313607B683A6859
:103BD000120E1A607B6804331A463B68DBB243F46A
:103BE000007313607B6808331A463B681B0ADBB21C
:103BF00043F40073136000BF0C37BD4680BC7047B0
:103C000080B485B000AFF860B9601346FB71BA6844
:103C100044F240031340BB60FB680C331946FB7948
:103C2000002B05D0FB680C331A68BB68134305E012
:103C3000FB680C331A68BB68DB4313400B6000BFA2
:103C40001437BD4680BC704780B485B000AFF860C3
:103C5000B9601346FB71BA6842F220031340BB609F
:103C6000FB680C331946FB79002B05D0FB680C333D
:103C70001A68BB68134305E0FB680C331A68BB681D
:103C8000DB4313400B6000BF1437BD4680BC704758
:103C900080B485B000AFF860B9607A60BA6840F669
:103CA0000C431340BB60FB680C331846FB680C33B5
:103CB0001A68BB68DB431A407968BB680B40134342
:103CC000036000BF1437BD4680BC704780B485B028
:103CD00000AFF860B9601346FB71BA6840F2022386
:103CE0001340BB60FB680C331946FB79002B05D0F1
:103CF000FB680C331A68BB68134305E0FB680C33A0
:103D00001A68BB68DB4313400B6000BF1437BD4625
:103D100080BC704780B485B000AFF860B9601346CE
:103D2000FB71BB68DBB2002B15D0FB79002B09D0EF
:103D3000FB6804331A46FB6804331B6843F04003F6
:103D4000136008E0FB6804331A46FB6804331B6801
:103D500023F040031360BB6803F47F43002B15D0AE
:103D6000FB79002B09D0FB6808331A46FB6808333F
:103D70001B6843F04003136008E0FB6808331A46F1
:103D8000FB6808331B6823F04003136000BF14373F
:103D9000BD4680BC704700BF80B485B000AFF860FE
:103DA000B9607A60BB68DBB2002B04D0FB683833A3
:103DB0001A467B681360BB6803F47F43002B04D072
:103DC000FB683C331A467B68136000BF1437BD465E
:103DD00080BC704780B483B000AF786039603B68C6
:103DE000FF2B03D17B6838331B6802E07B683C33D0
:103DF0001B6818460C37BD4680BC704780B485B040
:103E000000AFF860B9607A60BB68DBB2002B04D009
:103E1000FB6840331A467B681360BB6803F47F433A
:103E2000002B04D0FB6844331A467B68136000BF44
:103E30001437BD4680BC704780B483B000AF786053
:103E400039603B68FF2B03D17B6840331B6802E07D
:103E50007B6844331B6818460C37BD4680BC7047EE
:103E600080B485B000AFF860B9607A60BB68DBB23F
:103E7000002B04D0FB6828331A467B681360BB68AC
:103E800003F47F43002B04D0FB682C331A467B6875
:103E9000136000BF1437BD4680BC704780B483B048
:103EA00000AF786039603B68FF2B03D17B68283313
:103EB0001B6802E07B682C331B6818460C37BD4634
:103EC00080BC704780B483B000AF786039603B68D5
:103ED000FF2B03D17B6848331B6802E07B684C33BF
:103EE0001B6818460C37BD4680BC704780B485B04F
:103EF00000AFF860B9607A60BB68DBB2002B04D019
:103F0000FB6830331A467B681360BB6803F47F4359
:103F1000002B04D0FB6834331A467B68136000BF63
:103F20001437BD4680BC704780B483B000AF786062
:103F300039603B68FF2B03D17B6830331B6802E09C
:103F40007B6834331B6818460C37BD4680BC70470D
:103F500080B584B000AFF860B9607A60FB68194A38
:103F600093420DD0FB68184A934207D0FB68174A6A
:103F7000934201D1272304E0332302E0252300E00C
:103F80002323FB60BB68DBB2002B06D07968F8689E
:103F900000F0EEFAF86800F0B7FBBB6803F47F436B
:103FA000002B0AD0FB6801337968184600F0E0FA6C
:103FB000FB680133184600F0A7FB00BF1037BD4671
:103FC00080BD00BF000003400010034000200340FC
:103FD00080B582B000AF786039607B68174A934241
:103FE0000DD07B68164A934207D07B68154A9342EE
:103FF00001D1272304E0332302E0252300E023231B
:104000007B603B68DBB2002B05D0786800F0C6FB14
:10401000786800F0DFFA3B6803F47F43002B09D097
:104020007B680133184600F0B9FB7B680133184602
:1040300000F0D0FA00BF0837BD4680BD0000034045
:10404000001003400020034080B483B000AF7860CC
:1040500039607B68183319467B6818331A683B68E7
:1040600013430B6000BF0C37BD4680BC704700BFD8
:1040700080B483B000AF786039607B68183319462C
:104080007B6818331A683B68DB4313400B6000BF42
:104090000C37BD4680BC704780B483B000AF7860F9
:1040A0000B46FB70FB78002B03D07B6820331B682A
:1040B00002E07B681C331B6818460C37BD4680BC89
:1040C000704700BF80B483B000AF786039607B6810
:1040D00024331A463B68136000BF0C37BD4680BCD2
:1040E000704700BF80B483B000AF786039607B68F0
:1040F00010331A463B68136000BF0C37BD4680BCC6
:10410000704700BF80B584B000AF78600B46FB708D
:1041100000F038F8FB78002B02D00F4BFB6001E079
:104120000E4BFB60FA6813469B0013449B001A4633
:104130007B681344591EFA6813469B0013449B0086
:10414000B1FBF3F3013BBB60054ABB68136000BFE2
:104150001037BD4680BD00BF801A0600A086010052
:104160000C00024080B582B000AF0346FB7100F046
:1041700017F8034AFB79136000BF0837BD4680BDBE
:104180000008024080B400AF044A044B1B6843F0AF
:104190001003136000BFBD4680BC70472000024082
:1041A00080B400AF064A064B1B6843F0200313603F
:1041B000044B01221A6000BFBD4680BC704700BF9F
:1041C000200002400408024080B400AF044A044BBF
:1041D0001B6823F01003136000BFBD4680BC70470E
:1041E0002000024080B400AF064B00221A60064A4D
:1041F000054B1B6823F02003136000BFBD4680BC45
:10420000704700BF040802402000024080B582B021
:1042100000AF78607968182000F0AAF9182000F043
:1042200073FA00BF0837BD4680BD00BF80B500AF40
:10423000182000F0B3FA182000F0CCF900BF80BDC0
:1042400080B400AF034B01221A6000BFBD4680BCA2
:10425000704700BF1000024080B400AF044A044B16
:104260001B6843F00103136000BFBD4680BC70476C
:104270000C08024080B483B000AF78600549054B5C
:104280001A687B6813430B6000BF0C37BD4680BCC7
:10429000704700BF0C08024080B400AF034B0022FF
:1042A0001A6000BFBD4680BC704700BF10000240CE
:1042B00080B400AF044A044B1B6823F00103136071
:1042C00000BFBD4680BC70470C08024080B483B07C
:1042D00000AF78600549054B1A687B68DB431340E3
:1042E0000B6000BF0C37BD4680BC70470C08024015
:1042F00080B483B000AF0346FB71FB79002B07D07D
:10430000094B1B68002B14BF01230023DBB206E01E
:10431000064B1B68002B14BF01230023DBB2184699
:104320000C37BD4680BC70471800024014000240A4
:1043300080B483B000AF0346FB71FB79002B07D03C
:10434000094B1B68002B14BF01230023DBB206E0DE
:10435000064B1B68002B14BF01230023DBB2184659
:104360000C37BD4680BC704714080240100802405C
:1043700080B483B000AF0346FB71FB79002B02D001
:10438000044B1B6801E0044B1B6818460C37BD4604
:1043900080BC7047140802401008024080B400AF8F
:1043A000044B01221A60044B01221A6000BFBD4673
:1043B00080BC70471C0002401800024080B400AF6F
:1043C000034B01221A6000BFBD4680BC704700BF8E
:1043D0001808024080B483B000AF7860034A7B685D
:1043E000136000BF0C37BD4680BC70471808024000
:1043F00080B483B000AF03460A46FB711346BB711D
:104400000549FB795A00BB7913430B6000BF0C3799
:10441000BD4680BC704700BF0000024080B400AFC2
:10442000064B1B6803F00103002B01D0012300E0C1
:1044300000231846BD4680BC704700BF0400024000
:1044400080B400AF064B1B6803F04003002B01D083
:10445000012300E000231846BD4680BC704700BF22
:104460000400024080B483B000AF7860034A7B68E8
:10447000136000BF0C37BD4680BC7047040002408B
:1044800080B483B000AF0C4B1B687B607B6803F08B
:104490000103002B01D0002309E07B6803F0120325
:1044A000002B03D07B6803F01C0300E000231846B8
:1044B0000C37BD4680BC70470400024080B483B016
:1044C00000AF0346FB71044AFB79136000BF0C3751
:1044D000BD4680BC704700BF0800024080B400AFFA
:1044E000024B1B681846BD4680BC7047080002405E
:1044F00080B400AF024B1B681846BD4680BC7047B5
:104500000408024080B483B000AF0346FB71044A44
:10451000FB79136000BF0C37BD4680BC704700BFFD
:104520000808024080B400AF024B1B681846BD4625
:1045300080BC70470808024080B400AFFEE700BFAF
:1045400080B500AF01F0CAFF0346002B14BF012362
:104550000023DBB2184680BD80B500AF01F0B0FF8C
:104560000346002B14BF01230023DBB2184680BD95
:1045700080B485B000AF78603960144B1B68144A72
:10458000934218D0114B1B68BB600023FB600CE00A
:10459000FB689A00BB6813441B6819460C4AFB6809
:1045A00042F82310FB680133FB60FB68A22BEFD9B4
:1045B000064B074A1A6006497B683A6841F823208F
:1045C00000BF1437BD4680BC704700BF08ED00E057
:1045D0000040002080B483B000AF7860044A7B685C
:1045E000044942F8231000BF0C37BD4680BC704719
:1045F000004000203945200080B483B000AF7860CF
:10460000074A08497B6851F8233043F0BF6343F4FD
:104610000033136000BF0C37BD4680BC704700BF3D
:104620000CED00E0E46E200080B483B000AF0E4BD0
:104630001B6803F4E0633B6000237B6009E00B4AE6
:104640007B6852F823203B689A4206D07B6801338E
:104650007B607B68072BF2D900E000BF7B681846BF
:104660000C37BD4680BC70470CED00E0E46E2000C6
:1046700080B485B000AF78600B46FB707B689B0808
:10468000144A52F823301B68FB607B6803F0030375
:10469000DB00FF2202FA03F3DB431A46FB681340F8
:1046A000FB60FA787B6803F00303DB0002FA03F394
:1046B0001A46FB681343FB607B689B08054A52F867
:1046C00023301A46FB68136000BF1437BD4680BC18
:1046D000704700BF046F200080B483B000AF7860E3
:1046E0007B689B08074A52F823301A687B6803F0FE
:1046F0000303DB0022FA03F3DBB218460C37BD4696
:1047000080BC7047046F200080B483B000AF786035
:104710007B68042B06D11E4A1D4B1B6843F4803373
:1047200013602FE07B68052B06D1194A184B1B68D4
:1047300043F40033136025E07B68062B06D1144A4E
:10474000134B1B6843F4802313601BE07B680F2B23
:1047500006D1104A0F4B1B6843F00203136011E0AF
:104760007B680F2B0ED97B68103B5B090A4A52F815
:10477000233019467B68103B03F01F03012202FA25
:1047800003F30B6000BF0C37BD4680BC704700BF11
:1047900024ED00E010E000E0A86F200080B483B0BA
:1047A00000AF78607B68042B06D11E4A1D4B1B6846
:1047B00023F4803313602FE07B68052B06D1194A60
:1047C000184B1B6823F40033136025E07B68062B2D
:1047D00006D1144A134B1B6823F4802313601BE09B
:1047E0007B680F2B06D1104A0F4B1B6823F0020386
:1047F000136011E07B680F2B0ED97B68103B5B09BF
:104800000A4A52F8233019467B68103B03F01F0315
:10481000012202FA03F30B6000BF0C37BD4680BCD7
:10482000704700BF24ED00E010E000E0BC6F200006
:1048300080B483B000AF78607B68022B06D1194A40
:10484000184B1B6843F00043136025E07B680E2B78
:1048500006D1144A134B1B6843F0805313601BE0CE
:104860007B680F2B06D10F4A0E4B1B6843F0806309
:10487000136011E07B680F2B0ED97B68103B5B093E
:10488000094A52F8233019467B68103B03F01F0396
:10489000012202FA03F30B6000BF0C37BD4680BC57
:1048A000704700BF04ED00E0D06F200080B483B0FB
:1048B00000AF78607B680E2B06D1144A134B1B683F
:1048C00043F0006313601BE07B680F2B06D10F4A97
:1048D0000E4B1B6843F00073136011E07B680F2BD5
:1048E0000ED97B68103B5B09094A52F82330194600
:1048F0007B68103B03F01F03012202FA03F30B60F5
:1049000000BF0C37BD4680BC704700BF04ED00E01F
:10491000E46F200080B582B000AF7860786801F065
:10492000F1FD00BF0837BD4680BD00BF80B500AFB8
:1049300001F0ECFD0346184680BD00BF80B400AF17
:10494000044A044B1B6843F00103136000BFBD46DB
:1049500080BC704798200D4080B400AF044A044BDF
:104960001B6823F00103136000BFBD4680BC704785
:1049700098200D4080B400AF064B1B6803F0010384
:10498000002B01D0012300E000231846BD4680BC67
:10499000704700BF98200D4080B489B000AFF86028
:1049A0000B467A60FB72254BFB610023BB613CE048
:1049B000FA7ABB6942FA03F303F001037B617B6976
:1049C000002B2FD0FB681E4A934213D01C4A9342FF
:1049D00003D81C4A934207D01EE01B4A93420FD0D3
:1049E0001A4A934212D017E0194ABB6952F8233091
:1049F000FB6114E0174ABB6952F82330FB610EE0FB
:104A0000154ABB6952F82330FB6108E0134ABB69C1
:104A100052F82330FB6102E0084BFB6100BFFB69E9
:104A20007A681A60BB690133BB61BB69072BBFD9C8
:104A300000BF2437BD4680BC704700BF00400D401A
:104A400000A00D4000900D4000B00D4000C00D4092
:104A50007870200098702000B8702000D870200076
:104A600080B487B000AFF8600B467A60FB72002319
:104A70007B61FB68634A934237D0624A934203D812
:104A8000614A934207D0ABE0604A934256D0604AF5
:104A900093427CD0A4E0FB7A012B01D100237B61FF
:104AA000FB7A022B01D101237B61FB7A042B01D11C
:104AB00002237B61FB7A082B01D103237B61FB7A04
:104AC000102B01D104237B61FB7A202B01D105231C
:104AD0007B61FB7A402B01D106237B61FB7A802B23
:104AE00040F0818007237B617DE0FB7A012B01D1BF
:104AF00008237B61FB7A022B01D109237B61FB7ABE
:104B0000042B01D10A237B61FB7A082B01D10B23F3
:104B10007B61FB7A102B01D10C237B61FB7A202B6C
:104B200001D10D237B61FB7A402B01D10E237B61E8
:104B3000FB7A802B59D10F237B6156E0FB7A012B46
:104B400001D110237B61FB7A022B01D111237B6100
:104B5000FB7A042B01D112237B61FB7A082B01D154
:104B600013237B61FB7A102B01D114237B61FB7A29
:104B7000202B01D115237B61FB7A402B01D1162319
:104B80007B61FB7A802B32D117237B612FE0FB7A8C
:104B9000012B01D118237B61FB7A022B01D1192350
:104BA0007B61FB7A042B01D11A237B61FB7A082BF2
:104BB00001D11B237B61FB7A102B01D11C237B616C
:104BC000FB7A202B01D11D237B61FB7A402B01D185
:104BD0001E237B61FB7A802B0BD11F237B6108E0B6
:104BE00000237B6106E000BF04E000BF02E000BFDD
:104BF00000E000BF7B687A691A6000BF1C37BD46C1
:104C000080BC704700A00D4000900D4000B00D40EA
:104C100000C00D4080B489B000AFF8600B467A60E8
:104C2000FB72254BFB610023BB613CE0FA7ABB6958
:104C300042FA03F303F001037B617B69002B2FD061
:104C4000FB681E4A934213D01C4A934203D81C4A65
:104C5000934207D01EE01B4A93420FD01A4A934258
:104C600012D017E0194ABB6952F82330FB6114E0F7
:104C7000174ABB6952F82330FB610EE0154ABB6945
:104C800052F82330FB6108E0134ABB6952F8233025
:104C9000FB6102E0114BFB6100BFFB697A681A609F
:104CA000BB690133BB61BB69072BBFD900BF243788
:104CB000BD4680BC704700BF00400D4000A00D40C5
:104CC00000900D4000B00D4000C00D40F86F200076
:104CD00018702000387020005870200080400D406F
:104CE00080B485B000AF78600B46FB70644BFB600E
:104CF0007B68644A934237D0624A934203D8624A3F
:104D0000934207D0ABE0614A934256D0604A934247
:104D10007CD0A4E0FB78012B01D1594BFB60FB78E0
:104D2000022B01D15B4BFB60FB78042B01D15A4B6A
:104D3000FB60FB78082B01D1584BFB60FB78102BF4
:104D400001D1574BFB60FB78202B01D1554BFB6009
:104D5000FB78402B01D1544BFB60FB78802B40F05B
:104D60008180524BFB607DE0FB78012B01D1504BE1
:104D7000FB60FB78022B01D14E4BFB60FB78042BD0
:104D800001D14D4BFB60FB78082B01D14B4BFB60F5
:104D9000FB78102B01D14A4BFB60FB78202B01D113
:104DA000484BFB60FB78402B01D1474BFB60FB7805
:104DB000802B59D1454BFB6056E0FB78012B01D18C
:104DC000434BFB60FB78022B01D1424BFB60FB782D
:104DD000042B01D1404BFB60FB78082B01D13F4BEA
:104DE000FB60FB78102B01D13D4BFB60FB78202B47
:104DF00001D13C4BFB60FB78402B01D13A4BFB606F
:104E0000FB78802B32D1394BFB602FE0FB78012BF4
:104E100001D1374BFB60FB78022B01D1354BFB6096
:104E2000FB78042B01D1344BFB60FB78082B01D1BC
:104E3000324BFB60FB78102B01D1314BFB60FB78D0
:104E4000202B01D12F4BFB60FB78402B01D12E4B47
:104E5000FB60FB78802B0BD12C4BFB6008E0084BF0
:104E6000FB6006E000BF04E000BF02E000BF00E01E
:104E700000BFFB681B6818461437BD4680BC7047EE
:104E800080400D4000A00D4000900D4000B00D404E
:104E900000C00D4084400D4088400D408C400D40C6
:104EA00090400D4094400D4098400D409C400D4076
:104EB000A0400D40A4400D40A8400D40AC400D4026
:104EC000B0400D40B4400D40B8400D40BC400D40D6
:104ED000C0400D40C4400D40C8400D40CC400D4086
:104EE000D0400D40D4400D40D8400D40DC400D4036
:104EF000E0400D40E4400D40E8400D40EC400D40E6
:104F0000F0400D40F4400D40F8400D40FC400D4095
:104F100080B582B000AF78607968A120FFF728FBE8
:104F2000A120FFF7F1FB00BF0837BD4680BD00BFE1
:104F300080B500AFA120FFF731FCA120FFF74AFBAD
:104F400000BF80BD80B483B000AF0D4B1B687B6099
:104F50000C4B1B681B027A6813437B600A4B1B686F
:104F60001B047A6813437B60084B1B681B067A6836
:104F700013437B607B6818460C37BD4680BC704786
:104F800040500D4044500D4048500D404C500D4095
:104F900080B485B000AF786039600A4B1B68FB6055
:104FA000FB6823F03F03FB607A683B681343FA68B1
:104FB0001343FB60034AFB68136000BF1437BD4610
:104FC00080BC704754500D4080B483B000AF78600F
:104FD00000BF0E4B1B6803F00103002BF9D00C4AF5
:104FE0007B681B0E13600B4A7B681B0CDBB21360E3
:104FF000094A7B681B0ADBB21360084A7B68DBB294
:10500000136000BF0C37BD4680BC704750500D4048
:105010004C500D4048500D4044500D4040500D4004
:1050200080B483B000AF0D4B1B687B600C4B1B68DA
:105030001B027A6813437B600A4B1B681B047A6867
:1050400013437B60084B1B681B067A6813437B6025
:105050007B6818460C37BD4680BC70475C500D40DD
:1050600060500D4064500D4068500D4080B483B0D6
:1050700000AF074B1B6803F00103002B14BF012393
:105080000023FB71FB7918460C37BD4680BC704786
:1050900058500D4080B483B000AF074B1B687B6055
:1050A0007B6823F001037B60034A7B68136000BFC9
:1050B0000C37BD4680BC704758500D4080B48BB053
:1050C00000AFF860B9607A603B603B68022B01D1A9
:1050D000082300E000233B623B68002B01D1002342
:1050E00000E004233A6A13433B62FB6804331A4628
:1050F0003B6A1360BA683B6BB2FBF3F3FB610023BE
:105100007B627B6A02337B62FA697B6AB2FBF3F3F0
:10511000013BBB61BB69FF2BF3D8FB6810331A4618
:105120007B6A13607B689B01DBB27B617B6803F069
:1051300030037B60BB691A027B691A437B681A43A0
:105140007B6B013B13433B62FB683A6A1A6000BF0A
:105150002C37BD4680BC704780B483B000AF786008
:105160007B6804331A467B6804331B6843F00203F0
:10517000136000BF0C37BD4680BC704780B483B05D
:1051800000AF78607B6804331A467B6804331B6881
:1051900023F00203136000BF0C37BD4680BC70478C
:1051A00080B584B000AF786039607B68084A93426C
:1051B00001D1172300E03223FB603968F868FFF75C
:1051C000D7F9F868FFF7A0FA00BF1037BD4680BDD9
:1051D0000080004080B584B000AF78607B68084AEA
:1051E000934201D1172300E03223FB60F868FFF7F8
:1051F000D5FAF868FFF7EEF900BF1037BD4680BD5D
:105200000080004080B483B000AF786039607B6874
:10521000143319467B6814331A683B6813430B60D8
:1052200000BF0C37BD4680BC704700BF80B483B060
:1052300000AF786039607B68143319467B6814339B
:105240001A683B68DB4313400B6000BF0C37BD4658
:1052500080BC704780B483B000AF78600B46FB70B1
:10526000FB78002B03D07B681C331B6802E07B6853
:1052700018331B6818460C37BD4680BC704700BF0A
:1052800080B483B000AF786039607B6820331A4601
:105290003B68136000BF0C37BD4680BC704700BF41
:1052A00080B483B000AF7860396000BF7B680C3396
:1052B0001B6803F00203002BF8D07B6808331A4602
:1052C0003B68136000BF0C37BD4680BC704700BF11
:1052D00080B483B000AF786039607B680C331B68A2
:1052E00003F00203002B06D07B6808331A463B68A4
:1052F0001360012300E0002318460C37BD4680BC34
:10530000704700BF80B483B000AF7860396000BFE1
:105310007B680C331B6803F00403002BF8D07B6818
:1053200008331A683B681A6000BF0C37BD4680BC62
:10533000704700BF80B483B000AF786039607B688D
:105340000C331B6803F00403002B06D07B68083382
:105350001A683B681A60012300E0002318460C37E6
:10536000BD4680BC704700BF80B483B000AF78609A
:1053700039607B68243319467B6824331A683B689C
:1053800013430B6000BF0C37BD4680BC704700BFA5
:1053900080B483B000AF786039607B6824331946ED
:1053A0007B6824331A683B68DB4313400B6000BF03
:1053B0000C37BD4680BC704780B483B000AF7860C6
:1053C0007B680C331B6803F01003002B14BF012310
:1053D0000023DBB218460C37BD4680BC704700BFC7
:1053E00080B483B000AF786039607B6803F6C8731F
:1053F0001A463B68136000BF0C37BD4680BC70473F
:1054000080B483B000AF78607B6803F6C8731B6814
:1054100018460C37BD4680BC704700BF80B586B0CB
:1054200000AF03463A60FB710B46BB71BB7983F05A
:105430000103DBB2002B07D0244B1B6843F400139D
:105440003B61224A3B691360204B1B683B613A6910
:105450001F4B13403B61FB7983F00103DBB2002B50
:1054600003D03B6943F080733B61BB79002B02D0D2
:105470004FF4803300E00023BB603A69BB681343FC
:105480003B613A693B6813433B61104A3B691360D7
:10549000104B1B687B610023FB6008E0102000F0CC
:1054A000DBF80C4B1B687B61FB680133FB607B699D
:1054B00003F48032BB689A4204D0FB684FF6FE7258
:1054C0009342EBD900BF1837BD4680BD00200D4088
:1054D000F8FFFEFE04200D4080B485B000AF1E4BE7
:1054E0001B68BB60BB6803F007037B600023FB60A5
:1054F0007B68072B2AD801A252F823F01D55200003
:1055000023552000295520002F5520003555200017
:105510003B55200041552000475520000F4BFB60B4
:1055200014E00F4BFB6011E00E4BFB600EE00E4BE6
:10553000FB600BE00D4BFB6008E00D4BFB6005E0F2
:105540000C4BFB6002E00C4BFB6000BFFB68184695
:105550001437BD4680BC704704200D400048E80168
:105560000024F40000127A0000093D0080841E002F
:1055700040420F0020A1070090D0030080B485B006
:1055800000AF7860094B1B68FB60FB6823F4E063A5
:10559000FB607B681B02FA681343FB60034AFB68ED
:1055A000136000BF1437BD4680BC704700200D401B
:1055B00080B485B000AF1F4B1B68BB60BB681B0A83
:1055C00003F007037B600023FB607B68072B2BD86D
:1055D00001A252F823F000BFF9552000FF5520002A
:1055E000055620000B5620001156200017562000AB
:1055F0001D562000235620000F4BFB6014E00F4B7C
:10560000FB6011E00E4BFB600EE00E4BFB600BE00D
:105610000D4BFB6008E00D4BFB6005E00C4BFB60A5
:1056200002E00C4BFB6000BFFB6818461437BD4618
:1056300080BC704704200D400048E8010024F400BD
:1056400000127A0000093D0080841E0040420F00D5
:1056500020A1070090D0030001387FF4FDAF704710
:1056600000BF00BF80B400AF014B08221A60FEE704
:1056700074200D4080B500AF00F038FF00BF80BD42
:1056800080B582B000AF334B1B687B607B6803F052
:105690000703002B0CBF01230023FB707B6803F47E
:1056A000E063002B0CBF01230023BB70FB78002BB1
:1056B00002D1BB78002B18D0274B1B687B60FB788E
:1056C000002B01D0012300E000237A6813437B60A4
:1056D000BB78002B02D04FF4807300E000237A687F
:1056E00013437B601C4A7B6813601C4A1B4B1B687E
:1056F00043F00403136000F0F9FE184A174B1B68CF
:1057000023F004031360FB78002B02D1BB78002B3D
:105710001BD0114B1B687B60FB78002B02D06FF015
:10572000070301E04FF0FF337A6813407B60BB78DA
:10573000002B02D06FF4E06301E04FF0FF337A6892
:1057400013407B60044A7B68136000BF0837BD4686
:1057500080BD00BF04200D4000200D4010ED00E092
:1057600080B485B000AF78607B681B0A03F00F033C
:10577000042B0BD07B681B0A03F00F03042B05D00E
:105780007B681B0A03F00F03052B03D1104B1B682A
:10579000FB6002E00F4B1B68FB607B681B0A03F099
:1057A0000F030D4A52F823207B6803F00F0302FA1F
:1057B00003F3BB60FA68BB681340002B01D00123E0
:1057C00000E0002318461437BD4680BC704700BF78
:1057D0001C300D4018300D405471200080B485B04D
:1057E00000AF78607B681B0A03F00F031D4A52F874
:1057F000233018467B681B0A03F00F03194A52F83E
:1058000023301B687A6802F00F02012101FA02F2CC
:10581000134303600023FB6002E0FB680133FB607D
:10582000FB680F2BF9D97B681B0A03F00F030D4AA5
:1058300052F8233018467B681B0A03F00F03094A0D
:1058400052F823301B687A6802F00F02012101FA36
:1058500002F2D2431340036000BF1437BD4680BC40
:10586000704700BF4071200080B483B000AF786003
:105870007B681B0A03F00F030C4A52F823301846CA
:105880007B681B0A03F00F03084A52F823301B6899
:105890007A6802F00F02012101FA02F21343036059
:1058A00000BF0C37BD4680BC704700BFF8702000B9
:1058B00080B483B000AF78607B681B0A03F00F03ED
:1058C0000C4A52F8233018467B681B0A03F00F037A
:1058D000084A52F823301B687A6802F00F0201214F
:1058E00001FA02F2D2431340036000BF0C37BD46F9
:1058F00080BC7047F870200080B483B000AF78603F
:105900007B681B0A03F00F030C4A52F82330184639
:105910007B681B0A03F00F03084A52F823301B6808
:105920007A6802F00F02012101FA02F213430360C8
:1059300000BF0C37BD4680BC704700BF107120000F
:1059400080B483B000AF78607B681B0A03F00F035C
:105950000C4A52F8233018467B681B0A03F00F03E9
:10596000084A52F823301B687A6802F00F020121BE
:1059700001FA02F2D2431340036000BF0C37BD4668
:1059800080BC70471071200080B483B000AF786095
:105990007B681B0A03F00F030C4A52F823301846A9
:1059A0007B681B0A03F00F03084A52F823301B6878
:1059B0007A6802F00F02012101FA02F21343036038
:1059C00000BF0C37BD4680BC704700BF2871200067
:1059D00080B483B000AF78607B681B0A03F00F03CC
:1059E0000C4A52F8233018467B681B0A03F00F0359
:1059F000084A52F823301B687A6802F00F0201212E
:105A000001FA02F2D2431340036000BF0C37BD46D7
:105A100080BC70472871200080B483B000AF7860EC
:105A2000034A7B68136000BF0C37BD4680BC7047DB
:105A300058200D4080B483B000AF064B1B687B60DC
:105A40007B6803F003037B607B6818460C37BD4618
:105A500080BC704758200D4080B483B000AF074B26
:105A60001B687B607B6843F001037B60034A7B68B3
:105A7000136000BF0C37BD4680BC704780200D40CE
:105A800080B483B000AF786039607B682C331946EE
:105A90007B682C331B6823F086023B6813430B6042
:105AA00000BF0C37BD4680BC704700BF80B483B0D8
:105AB00000AF78607B682C331B6803F086031846C0
:105AC0000C37BD4680BC704780B485B000AFF8602D
:105AD000B9607A60FB6834331946BA687B6813434F
