:020000040020DA
:20200000606C00208D222000ABAF2000A9AF2000A9AF2000A9AF2000A9AF200000000000AB
:20202000000000000000000000000000A9AF2000A9AF200000000000A9AF200043B0200025
:2020400055B020005BB0200061B0200067B020000000000049B020004FB02000A9AF200018
:20206000A9AF20000000000000000000000000000000000000000000A9AF20000000000070
:202080000000000000000000A9AF2000A9AF2000A9AF2000A9AF2000A9AF2000A9AF200070
:2020A000A9AF2000A9AF2000A9AF2000A9AF2000A9AF2000A9AF2000A9AF2000A9AF200060
:2020C000A9AF2000A9AF2000A9AF2000A9AF2000A9AF2000000000000000000000000000A8
:2020E00000000000000000000000000000000000000000000000000045362000553620009A
:202100000000000000000000000000000000000000000000000000000000000000000000BF
:2021200000000000000000000000000000000000000000000000000000000000000000009F
:2021400000000000000000000000000000000000000000000000000000000000000000007F
:2021600000000000000000000000000000000000000000000000000000000000000000005F
:2021800000000000000000000000000000000000000000000000000000000000000000003F
:2021A00000000000000000000000000000000000000000000000000000000000000000001F
:2021C0000000000000000000000000000000000000000000000000000000000000000000FF
:2021E0000000000000000000000000000000000000000000000000000000000000000000DF
:202200000000000000000000000000000000000000000000000000000000000000000000BE
:2022200000000000000000000000000000000000000000000000000000000000000000009E
:2022400000000000000000000000000000000000000000000000000000000000000000007E
:2022600000000000000000000000000000000000A9AF2000293520004D352000C92A2000B3
:20228000B537200071262000A9AF200008B5094BFF221A600848094A4824E3690849121A7F
:2022A00098470848084AA3690021121A984701F0C5FAFEE7B4200D40404000205442002059
:2022C00080C22000584200205B64002008B5002000F028FA012000F025FA0D49002000F07E
:2022E000FDFA02F0A1F8002002F048F901F042F900F00EFC00F02AFC0648082101F06EFAFD
:2023000001F0ACFF62B6BDE80840042008F050BEE54320003A64002073B51A4B1B68022BAF
:2023200008DD194919481A4A03F010FA19481A4903F00CFA6846082101F050FA174E9DF8CB
:2023400007309DF80650F46A43EA05254AF6CD310220A04729460320A0471A210120A047A3
:20236000736B082269460B20984708F057FE00F0B1F800210A4801F027FE022008F018FEFD
:2023800002B070BDB44000206FBE200060BE200074BE200022BF200079BE200074BD2000C4
:2023A0000841002010B5002140FA01F3DB0721D5124B03EB4102527813F8113062B1DA082F
:2023C0001203012402F1804203F0070304FA03F302F5592200240BE0DA081203012402F18D
:2023E000804203F0070304FA03F302F55922FF2442F8234001310329D6D110BD9EBE2000AA
:2024000030B5002140FA01F3DB0717D50D4B012403EB410213F811305578DA08120302F109
:20242000804203F0070302F5592204FA03F31DB1FF2442F8234001E042F8235001310329FD
:20244000E0D130BD9EBE200030B500220D4B0E4913F812300132D80800030D5803F00704E6
:202460000123A34025EA03040C50203901440868032A43EA00030B60E8D1BDE83040072018
:20248000FFF7BEBF9EBE200020940D40084A136823F00403136052F8203C43F0040342F8D8
:2024A000203C044B00221A60034B01221A70704720C40D4010C00D401C540020044B186876
:2024C000C0F30720030904BF1030C0B2704700BF1C300D4008B5FFF7F1FF014B1B6808BD5B
:2024E0001C300D40F8B500F081F80F4B0024D3E900673A46B04238BF7A1C15460443C3E93F
:202500000045DFF828E0DEE90001821B61EB070312196B41CEE9002301F054FB18B1BDE87D
:20252000F84001F0DFBAF8BD58420020604200200D4B0E4AE0215A600D4A82F82310002217
:2025400007219A6019600B490B6843F001030B60094B1A60042243F80C2C012243F8082C7E
:202560000F22DA62704700BF10E000E047E8010000ED00E008200D400C000340034BD3E9DD
:202580000023100A40EA0360704700BF58420020034BD3E90023D00B40EA4340704700BF16
:2025A00060420020054B18601C3B1A6842F001021A601A68D207FCD4704700BF28000340FD
:2025C00010B5064C236823F001032360FFF78AFF236843F00103236010BD00BF10E000E09F
:2025E000014B1868704700BF68420020074B084A196804331B681268120442EA0323054ABF
:202600000B43106843EA0060704700BF40500D4048500D404C500D4010B50446104B1B6859
:20262000DB07FBD572B6FFF7E1FF231A062BD8BFC41D0C4B220E1A60C4F3074243F8042C98
:20264000C4F3072243F8082CE2B243F80C2C62B6054B4FF400321C60044B1A6110BD00BF75
:2026600050500D404C500D406842002000E100E008B501F00BF8074B00221A60064B4FF4C6
:202680000032C3F89021C3F89020BDE8084001F0BFBC00BF6842002000E100E0064B1B68BA
:2026A0001B075FBF054B186880F00800C0F3C00048BF0020704700BF18C0004018D0004042
:2026C000164A38B52C2303FB00234FF6BF72DC680546236C62649BB213F050020DD0A36958
:2026E000DB0609D40E4B53F825301BB12068C0B29847F4E72368F2E738BD13F4D06F0BD029
:202700004FF440732363FF236360E36AE262E362236B43F00103236338BD00BFACBC2000FB
:202720006C4200202DE9F04F012885B0064600F2C3802C244443624B1D1995F920A005F199
:202740002007BAF1000F9946C0F2B68095F92230002BC0F2B1805B4801F00AF85A4A59F858
:2027600004301168EC680B43136051686B6895F921B00B4353609168AB6895F822800B4322
:2027800093600023C4F8C83F2B690BEBCA021A6095F823305FFA88FC01939DF804306046D0
:2027A00019462A7DCDF80CC0029300F03FF9029BDDF80CC019466046082200F02DF94FFAF9
:2027C00088F842494FEA08389DF9042058F80100012303FA02F2024348F801204FEA0A3A32
:2027E0005AF8010003FA0BF202434AF801205022A263A26B95F8240042F4D062A26302221E
:2028000062634FF440722263AA696262EA69A2627022E26242B2002A0C4614DB95F9251053
:202820002B4D41EAC20129607979120315594FB2BB402B431351002200F0EEF8254A136884
:2028400043F4004313602C2303FB069393F8265020336FB2002F1CDB93F807A0EDB25FFAE0
:202860008AF82846414601223F0300F0DFF84FFA8AFA3A59012303FA0AF313433B5108222B
:202880002846414600F0C8F8124A136843F4804313602C2303FB0696F268136B43F0010357
:2028A000136396F828300122590903F01F0302FA03F3094A42F8213005B0BDE8F08F00BFBA
:2028C000ACBC20009D26200028200D4020940D4004410D4030D0004000E100E001289CBFE0
:2028E000014B43F8201070476C420020012808D8044B2C2202FB0030C3689A699206FCD433
:2029000019607047ACBC2000014B00221A60704700500D40014B08221A60704700500D407F
:20292000024BA0221A6050221A60704700500D40014B024A9A60704700ED00E00020200078
:2029400038B5164D164C2B68032023F040032B602368062123F040032360012200F05CF83C
:202960002B68012223F080032B602368032023F080032360072100F04FF80A4A0A4B1A6037
:202980000A4B0B4A19680A40002AF9D11A685101FCD41A685201FCD538BD00BF20C40D409F
:2029A00000C40D400101020000200D4004200D40000001012DE9F84305464FEA0538DFF839
:2029C000389008F1804606F5592600F05FFED6F8187458F80940ED00EC4047EA0400C0B2F6
:2029E000E4B2A840FFB2AC4001F036FDC6F81C7448F80940BDE8F88318970D40034A044B09
:202A00001A60044B803A1A60704700BF80400D407842002074420020034B01EBC0011B6808
:202A200043F82120704700BF78420020034B01EBC0011B6843F82120704700BF7442002084
:202A40000E2870B50BD1164B164E1C6844F002051D60356825F03F0343F001033360124E20
:202A6000336823F0FF031A431143014331600F4B1B681B06FBD50E4B0E4A1B6812680E286E
:202A800003F0FC0343EA022308BF064A9BB204BF1560034A9BB208BF146018B270BD00BFCB
:202AA00034000144F486084008700D4000700D400C700D4010700D40024B1868B0FA80F0DC
:202AC0004009704700B7084010B5074B4FF40042064CC3F89021C3F89020206818B101F0F0
:202AE0008BFA0023236010BD00E100E07C420020064A136843F002031360536843F00203D6
:202B00005360936843F002039360704748200D4007B50C4800F02CFEFFF7EAFF0A4B1A6890
:202B200042F002021A6000220192019A0F2A02DC019A0132F8E71A6822F002021A6003B00C
:202B40005DF804FBB92A200054200D40064A136823F002031360536823F002035360936886
:202B600023F002039360704748200D402DE9F0410F464FEAD0084FEA083400F0070101269D
:202B800004F180448E4017F00C0304F559246FEA060505D1D4F810342B40C4F810342EE05F
:202BA000042B0DD1D4F804342B40C4F80434D4F808342B40C4F80834D4F80C3433430EE0CA
:202BC000082B0FD1D4F804342B40C4F80434D4F808342B40C4F80834D4F80C342B40C4F8E1
:202BE0000C340CE00C2B01BFD4F804342B40C4F80434D4F8083404BF3343C4F8083417F00F
:202C0000030201D0022A01D1404603E0012A03D140460422FFF700FF17F0800705D1D4F8A7
:202C200010342B40C4F810340AE04FB1D4F81034074A1E43012303FA08F3C4F8106413607A
:202C4000D4F820341D40C4F82054BDE8F08100BF00E100E0074B93F90020002A08DB064AD6
:202C6000ED211160E32111601A7862F07F021A700120704720540020388808400B4B1A6825
:202C80009207FBD41B685B065EBF094BED221A60084B1B6813B1064BEF221A60064A012007
:202CA000137803F07F031370704700BF4C860840388808402C8608402054002010B50A4B51
:202CC00004461B6813F03F0302D0FFF7D7FF012304EB840205492C3A0A600BB1FFF7BAFF22
:202CE000034B1C7010BD00BF488608403C8608405342002010B50B4B1B68990603D1FFF792
:202D0000A9FF012300E00023074A1268D207FBD5064A1468C4F300140BB1FFF7AFFF204613
:202D200010BD00BF48860840648608404C860840044B186800F02200A0F1200358425841DD
:202D4000704700BF4C860840024B186800F04000704700BF4C86084038B50C46002900F0FE
:202D60008D80172800F28C80DFE800F00C1215171E343D4E53696D8A8A8A727476798A7B8A
:202D80007D7F81853F4B1B68003318BF01236FE03D4B1B786CE03D4B00E03D4B1A68043B8F
:202DA0001B6843EA022363E000230B60394B3A4A1B6803F001030B601268920644BF43F038
:202DC00002030B60354B1B78002B52D00B6843F004034DE0324B00201B780860002B48D06E
:202DE00001230B6038BD2F4B1A680023D2B22E4901EBC3000079904202D851F8333037E09E
:202E000001330E2BF3D127E0284B1B685BB2493B2EE0274B1B689B0603D1FFF71BFF012248
:202E200000E00022234B1B6859B28031FAD0493BDDB20AB1FFF722FF6DB2256019E01E4B2E
:202E400093F9003014E01D4B1B7803F07F030FE00B230DE01A230BE06FF0170308E0072395
:202E600006E0032304E0202302E00C2300E008232360002038BD0020086038BD022038BDD7
:202E8000012038BD2C86084053420020CC850840D485084000860840248608401F540020E0
:202EA000524200204086084004BD20005886084048860840608608401E5400201D540020E2
:202EC00038B505460C46124B1B689B07FBD4114B93F90030002B01DBFFF7BCFE0E4BEE22DF
:202EE0001A60691EA21C43F8102C2144022000F05BFB013C094924012143022000F066FB44
:202F0000022000F06DFB022000F082FB002038BD4C860840205400203888084002C001C05A
:202F2000F8B5214B93F90030002B0DDBFFF75EFB0446FFF78FFEFFF759FB6FF009031B1BA2
:202F4000C342F8D4012600E00026184B1B7823B9174D2B68990604D405E0FFF7CBFE002867
:202F6000F6D10220F8BD134BE9221F461A6004242B689A0707D4013C14F0FF0403D00620F7
:202F8000FFF710FBF4E72B689B0703D4EE233B60012403E02C6814F00204FBD10EB1FFF776
:202FA0006DFE2046F8BD00BF20540020524200204C860840388808400B280DD1082A0DD141
:202FC00061B1074B083111F8012D43F8042F054A9342F8D10020704701207047022070473A
:202FE000A4850840C485084070B52F4E336813F0400307D02D4D2B68DCB21B0604D52C4B69
:20300000ED221A60002070BD042CF8D9023C8C42F5DCE4B2032C21D001190139032000F0DF
:20302000CBFA631E23491B010320194300F0CEFA032000F0D5FA032000F0EAFA032000F09F
:20304000F3FA0028FAD129681B4B4939C9B219702B681A4D18062B70D1D506E02B680370CE
:203060002B6843702B688370EDE749B289B2042001F088FD2978032001F07F0101F082FD3B
:203080000F4B1B786BB933685A060AD5064B1B681B0603D50B4800F0AFFF02E0044BED2247
:2030A0001A60204670BD00BF4C860840288808403888084002C0010C1E5400201D54002038
:2030C0001F540020A44000200B282DE9F84F8A4611D1082A40F0828000297FD0414B01F1BD
:2030E000FF3A53F8042D0AF8012F3F4A9342F8D10020BDE8F88F0C286DD1042A6ED100296E
:203100006CD03A493A480B68DFF8EC9023F007030B600368DFF8E4B043F008030360DBF8D6
:203120000040D9F800200B68DFF8D4C0DFF8D48023F070030B60D8F80050DCF80030E4B2AA
:20314000120244EA036392B2DFF8BCE01A43EBB242EA03430024DEF8002044EA03060B68E0
:20316000D5B223F0070343F001030B6003682F4643F008030360DBF80000D9F800200B6851
:20318000120223F0700343F010030B60D8F80050DCF80030C1B241EA036392B21A43EBB27E
:2031A00042EA0343DEF8002044EA03085FFA82F9FFF71CFAB6EB080667EB0907F903054636
:2031C00041EA5641F0030B4A002307F0BBFA281ACAF800008CE70120BDE8F88F0220BDE88B
:2031E000F88F00BFC8850840A885084010880840048808400048E8011888084014880840CE
:2032000020880840248808401C880840214B1870002834D0204B1B681B03FBD51F4B1A68F6
:2032200042F002021A601A6842F001021A601A681A495007FBD50A6822F001020A6019682F
:20324000164A4907FBD4116841F002011160116841F0010111601A685207FCD5104A136833
:2032600023F004031360D2F8A83123F00403C2F8A8310C4B4FF40052C3F890207047084A11
:20328000136843F004031360064B4FF400521A61704700BF1F54002004200D400488084057
:2032A0008C86084000E100E02DE9F0412E4F3D7815F0010555D12D4B01241C605C609C6078
:2032C000A3F59323A3F51473F8221A600922C3F89021152270331A6003F59B230B2203F527
:2032E0009E731A60A3F59B23214EA3F5A6731C604023336033684FF07F0843F02003336011
:203300001C4BD5221D60C3F848809A631A4B1878FFF7D4FC33684FF4804223F00C03336042
:20332000164B0220C3F80080154B1A6100F064F91449022000F040F9032000F05DF911493C
:20334000032000F031F9104B1878FFF75FFF0F48294600F039FE3B78204623433B70BDE835
:20336000F0810020BDE8F08120540020A8200D40248608400886084053420020948608401E
:2033800000E100E0288808401F540020A440002038B503880446CBB140F21242934203D071
:2033A00000230380032038BD194B18781A4628B11B7873B1174B1B7858060AD5822908D1B5
:2033C000137843B1134B1A78520614D440F212432380012038BD01F089FB01F01BFB8021E1
:2033E000FFF702FE0028EDDD80B201F0F7FA0A4BDB689847E6E700221A70084B1D68FFF713
:203400003DFCFFF751FFAB06E0D0FFF723FCDDE71F54002020540020D8BD20004886084001
:2034200010B50C460D286AD8DFE800F007121A1E2541475A69696969695F012903D1FFF78F
:2034400009FC002010BD00295BD1FFF717FCF8E7A1F10B030F2B54D8C8B2FFF72FFCF0E7C5
:203460008CB2E2B2284B02E08CB2284BE2B2240A1A605C60E5E731F0070342D1244B11F002
:20348000010F1A68C1F3800014BF42F0010222F001021A601F4B11F0020F1A6814BF42F0CC
:2034A000200222F020021A60FFF7B0FEC9E731F0010026D1184B197010BD01F118031F2BBF
:2034C0001FD80D231549DA0051F83300844203DC8B181A79124B10E013F1FF33F2D2B0E758
:2034E000CCB2104B49341C60ABE70A4B1A6811B122F00C0201E042F00C021A60A1E701206B
:2035000010BD022010BD00BFC8850840D085084000860840248608405242002004BD2000A9
:20352000408608405886084008B5054B1B7813B9044800F061FD044B00221A6008BD00BFE2
:203540001F540020A440002034880840064B07481A68042A1FBF06490A7842F040020A70E3
:2035600000221A6000F048BD2C880840A44000202054002010B5094C40222046002107F02C
:20358000C5FC074B01221A605C60064B4FF480425A604FF400425A6010BD00BF0040002084
:2035A00004F00F4000E100E003289EBF014B0001195070470040002003289EBF024B03EBEF
:2035C00000104160704700BF0040002003289EBF024B03EB00108160704700BF00400020DA
:2035E00003289FBF034901230A6883409CBF13430B60704728F00F4003289FBF034901236A
:203600000A6883409CBF13430B60704720F00F4003289FBF034901230A6883409CBF134364
:203620000B60704714F00F4003289FBF044B03EB0010806800F0070088BF0020704700BF83
:2036400000400020024B4FF0FF321A60704700BF04F50F40014B01221A6070474CF00F40EA
:20366000094B1A6812F4801F1A46F9D1043B196821F4803119601168C903FCD41A6842F4D9
:2036800000321A60704700BF04200D4010B5094C236898070DD0084B1A685101FBD41A68FE
:2036A0005201FCD5FEF78CFFFFF7DAFF23680023236010BD58200D4004200D4038B5264B05
:2036C0001C6814F03F0413D1244B53F8243023B1984768B10134052CF6D1214D2B783BB137
:2036E000FEF77EFF0446FEF781FF201A092801D830BF38BD002CFBD01A4B1A6822F400324B
:203700001A60194A1168C902FBD4196841F4803119601368DB03FCD5FEF768FF201A0928E8
:2037200003D8BDE83840FFF79BBF63280F4C02D92B78022B00D00123236000F013FC20B169
:20374000FFF78EFF0023236038BDFEF749FF0028F6D02368CCE700BF48860840804200202B
:203760002154002000200D4004200D4058200D400023064A52F82310814206D011B942F884
:20378000230070470133052BF3D1704780420020054B00221A60054A136943F00403136129
:2037A000034B02221A70704758200D4000ED00E02154002010B5074B4FF48032064CC3F816
:2037C0009021C3F89020206818B100F015FC0023236010BD00E100E094420020134B1B7860
:2037E0003BB9134A1278122A03D1124A12784B2A04D001F52011273101380EE008448B42F0
:203800000ADA03F52012032BD4BF2C3224321278013300F8012DF2E77047074B994204D0B0
:2038200011F8013900F8013FF7E770472B0028002A002800290028002700280038B5624C98
:2038400007F0E0FBFEF774FE07F09EFC00F030FB5E48002100F0B8FB00F022FAFFF754F8CB
:2038600007F074FC00F0E8FBFEF730FD01F0D0F900F0CAF92368022B07DD55485549564A08
:2038800001F064FF554801F061FF2368022B09DD50494F48504A01F059FF514B514819687F
:2038A00001F054FF2368022B09DD4A4948484A4A01F04CFF4C4B4D48196801F047FF2368C4
:2038C000022B09DD43494248434A01F03FFF484B4848196801F03AFF2368022B09DD3D4911
:2038E0003B483D4A01F032FF43484AF6CD3101F02DFF2368022B08DD36493548364A01F0AC
:2039000025FF3E481A2101F021FF2368022B09DD30492F48304A01F019FF394B39481988FA
:2039200001F014FF2368022B07DD294829492A4A01F00CFF344801F009FF2368022B02DD88
:20394000324800F08FF82368022B02DD304801F0FDFE08222D492F4807F0FEF92E480021DF
:2039600000F032FB4FF0FF3002F094FC23680546022B07DD16481749174A01F0E7FE2748EF
:2039800001F0E4FE2368022B05DD0DB1A81C00E0284600F057F82368022B02DD1C4801F0BF
:2039A000D5FEFEF7B9FC1E4807F0BFFBFEF7B2FF00F096FA0446FEF7B3FF14F0FF0FF7D182
:2039C00007F02AFBF4E700BFB4400020B840002060BE20006FBE2000DABE2000DFBE200005
:2039E00000BE200001BF2000F0BD200010BF2000D8BD20001BBF200026BF200040BF20007A
:203A0000544D002060BF20006DBF20003A640020FFBE2000905C0020B041002082BF200041
:203A200050BE200010B50446FEF7B2FD94E80C001344C01A024B98428CBF0020012010BD6C
:203A4000FEFFFF7F00B58BB002462821684602F0DDFD6946024801F079FE0BB05DF804FB80
:203A6000A6BF200038B5054620B90A48BDE8384001F06CBE0024295D0748013401F066FEA3
:203A8000082C05D0E307F6D4044801F05FFEF2E738BD00BFC2BF2000D3BF2000D1BF20003F
:203AA00010B50E4C236813B90D4A136010BDFEF765FD216891E80C001A44131A8A6842B124
:203AC00092E812002144091A8B4228BF0B469268F5E71844024B186010BD00BF9842002050
:203AE0009C420020014800F087BA00BFB8400020F8B5038805462BB1592B09D00023038015
:203B00000320F8BD1E4A136059232B800120F8BD872920D08229F7D1194F00263C68002C84
:203B2000F2D0204607F039FB90B1E0688821224600F022FA50B9E060A3680EB1B36000E086
:203B40003B600023A360FFF7ABFFE5E7FFF7CAFF2646A468E3E70A490B680BB90B60D3E788
:203B6000D868904201D19B68F7E70B6099680029CAD0C86890420ABF89680B469960F5E76F
:203B80009842002010B50446FFF7ACFFE3680B4A4BB113683BB1A34203D1094A1268DA60B8
:203BA00007E09B68F6E7064B1B68E36013681460A360BDE81040FFF773BF00BF984200205F
:203BC000A4420020024B1868003018BF012070479842002010B50B4A04461368984206D1A9
:203BE0008368136008E09A68A24203D01346002BF9D103E0A2689A60FFF752FF0023A36024
:203C0000E36010BD98420020034A9179D379034A03EB0123138070473A640020544D0020CF
:203C2000F8B50388064615462BB14A2B15D0002303800320F8BD174807F0DFFA04462CB19B
:203C4000201DA16807F083FA2468F8E7124B01221A704A2333800120F8BD8829FBD10D486D
:203C600007F0CBFA0446002CF3D0231D9D420ED10848214607F0CBFA084B62691F681A60BF
:203C8000A2691D460AB1E06990472F60E1E72468E9E700BFA042002022540020A4420020CB
:203CA00010B5064B002406481C7007F0A3FA2146BDE81040034800F087B900BF2254002030
:203CC000A0420020C840002070B50446E3610B4B049D1B786561A26143B1094D094B2E6880
:203CE000201D2B6007F033FA2E6000E0A1602146BDE87040044807F09EBA00BF22540020BD
:203D0000A4420020C8400020A042002013B5034C24680094FFF7D8FF02B010BDA4420020EA
:203D200070B5094B05461B783BB1084C084B26680430236007F014FA26602946BDE8704005
:203D4000044807F078BA00BF22540020A4420020C8400020A042002010B5084B04461B7874
:203D60001BB10430FFF736FF01E0C36003612146BDE81040024807F04ABA00BF22540020BA
:203D8000A042002010B50A4B04461B7823B1BDE81040043007F0EDB9064807F02EFA18B15A
:203DA000A04203D00068FAE7012010BD002010BD22540020A042002038B5836804460D461D
:203DC0009BB10A4804600220A07304F10C0098470238012801D9832D05D120462146BDE897
:203DE000384000F005B80123A37338BDA44200202DE9F8431C4A0446156889462B469046D5
:203E00001A4E3768A34204D00BB11B68FAE7BDE8F88334B3A37BABB10023A37345B1AC4224
:203E200004D028468721224607F0A8F92D68F5E7A3683BB14C4505D0346004F10C00832191
:203E40002A469847D8F800309C4203D12268064B05E0134623B11A68A242FAD122681A603F
:203E60003760BDE8F88300BFA8420020A442002010B5094B00221A70084B1C685CB1E37BB5
:203E80003BB101230022A373E27320468221FFF793FF2468F2E710BD25540020A84200201F
:203EA000024B1878421C1A70704700BF26540020064B8A221A70064A00231370054A1370DE
:203EC000054A1360054A1360704700BF265400202354002024540020A8420020A44200200F
:203EE0002DE9F0411A4D2B780BB1FFF7C1FF194C22783AB3184E0C213378184F5943781842
:203F000017F8018001334768806803F01F03013A3370227068B9124B1E689EB12B780BB10F
:203F2000FFF7A6FF304641463A4607F027F93668F3E7B8F1810F04BF0123837341463A46BD
:203F400007F01CF92B7820781844BDE8F08100BF255400202454002023540020AC42002013
:203F6000A8420020024A034B10781B78184470472454002025540020F0B50B4E3378202B4A
:203F80000FD00A4C0C252478094F1C4404F01F046C4301333D19A86039556A6033700020F4
:203FA000F0BD0120F0BD00BF2454002023540020AC42002038B5034C256807F0DFF825606E
:203FC00038BD00BFA442002010B50A4609490C68234683420DD00BB11B68FAE748B10460C4
:203FE00008600121817383818121BDE81040FFF7E1BF10BDA842002038B1837B013B012BEC
:204000009FBF024A0123C373137070472554002010B5084C206858B10023236081684368E5
:204020009847236823B1BDE810401868FEF7F4BA10BD00BF2C44002007B50A4B01AA1A60D8
:20404000094B0193019B934204D2591C0191CD211970F7E705480021FFF7B6FF03B05DF8B4
:2040600004FB00BF404400205B640020D840002038B5FEF755FC0D4C23780D4DCD2B06D078
:20408000AC4204D20134F7E7AC4203D201342378CD2BF9D0FEF744FCAC4203D20448001B96
:2040A00080B238BD4FF6FF7038BD00BF5B640020606C002070B5038805462BB1902B0BD039
:2040C00000230380032070BD14484FF4A06107F03EF890232B8003E0104807F04AF808B98A
:2040E000012070BDFFF7C4FF0D4C0E4B06461C1BA4B2A0420DD90C4B1B68002B09DD0B4927
:204100000B4A0C4801F022FB0B483146224601F01DFB024807F024F8DBE700BF304400203B
:204120005B640020606C0020B44000206AC020006EC0200060BE200074C0200010B5044667
:2041400090F84C308021013380F84C30064A23462030FFF7DBFD054B2246BDE810400020EE
:204160001978FFF709BF00BF3D4120005664002070B503880446BBB1CB2B03D000230380E4
:20418000032070BD822911D106F079FFBFF35F8F104B00221E681A60BFF35F8F06F073FFAF
:2041A0000D4D55F8040F18B9CB232380012070BD90F8453026FA03F3DB07F2D5FFF7E2FD04
:2041C0000028EED028680221044A0346FFF79EFDE7E700BF504400208C400020F941200097
:2041E000034A1368184310600248FFF705BF00BF50440020E840002070B50446FFF7C2FD49
:2042000020B304F120063046FFF7BCFD0546204606F0DBFF01280CD1C5B10025304623468A
:2042200084F84C507E210A4AFFF770FD2846094B06E058B955B93046FFF78EFD2846064B93
:204240002246BDE870401978FFF796BE70BD00BF3D4120005764002055640020F8B5FFF7E5
:204260001FFE2F4B2F4E1870FFF71AFE2E4B2F4C1870FFF715FE2E4B18700023B3602D4B60
:2042800073602168002943D091F845208F6C2A4BD10809030B441968012502F0070205FA53
:2042A00002F221EA02021A60236893F84520234BD1080903585802F0070205FA02F220EA0B
:2042C00002025A50236847F08C0193F84500FEF74DFC236893F84520194BD10809030B44C0
:2042E000196802F0070205FA02F20A431A60236893F84530DB0805FA03F2124B1A6054F803
:20430000043B93F845309D40B3681D43B560B8E70D48FFF759FEBDE8F840024800F096B84B
:204320005764002044440020556400209040002056640020E141200020940D4000940D4033
:2043400010940D4000E100E0E840002038B5058804466C2D09D07E2D2ED0002D32D1FFF75E
:204360009FFD1B4B18701B4B1D601B4806F0F6FF431C01D16C231DE00A28164B07D01A68D9
:204380007E2AF2DC511C1960144B9854EDE7196800254A1C1A60114A0D4B555428461978C1
:2043A000FFF7EAFD0E4B852118682A46FFF7E4FD20B97E23238009E0852907D1054B00225C
:2043C0001A60D2E700230380032038BD012038BD586400205444002058440020A75400206B
:2043E000A44200200D2810B5014615D00B4C23782BB90B4806F09EFF48B9012306E00A2898
:2044000005D1074806F096FF08B1002323700548FFF7F2FD012010BD002010BD27550020D4
:2044200058440020F840002008B505480549802206F079FFBDE8084003480021FFF7C4BD30
:204440005844002027540020F84000200146014806F0F1BE6044002038B50546064806F038
:20446000CCFE04463CB1A068284002D0636803B198472468F6E738BD60440020014806F03A
:20448000B9BE00BF6044002070B505880446772D30D07E2D3FD0002D4DD1FFF701FD294B15
:2044A0001870294B1D601D462B68284A264E52F823204AB126480021C15493688020984701
:2044C000336801333360EFE7224A1370772320E01F4AD256002A12DB1B4A136801331360EC
:2044E000194B1C4A1B6812789342F1DB1A4B1B68002BEBD0184A00231360134AEFE7114AF0
:2045000000201178114A52F82320FFF735FD30B97E23238013E00B4B1B788B420FD10A4BD7
:204520000B491A688B5C03F07F038B540A4A136801331360D0E700230380032070BD012026
:2045400070BD00BF596400206444002098400020526400202855002068440020054A1368C9
:2045600043F004031360044B1B68906943EA002080B2704700700D4014700D40174A136823
:2045800023F00C031360164B01221A601A68012AFCD1144B08221A60E322C3F8142203F51D
:2045A00005731946104B1B68DB07FBD5102000230E4A0138126802F0010243EA02034FEAD6
:2045C00043039BB2F4D1002BF0D0094A180A03F0FE0310601360EF230B60704700700D405B
:2045E000A8200D4024860840648608409C86084014700D4008B5044806F03FFEBDE808401E
:20460000024806F03ABE00BF2441002018410020014806F07ABE00BF1841002038B50E48B3
:2046200006F03BFE0446A8B10C4806F036FE0546206028B92146084806F043FE284638BD2D
:2046400000F0F0F905F19C01A5F8800005F1820000F072FA204638BD1841002024410020A4
:2046600010B504460748214606F041FE48B12168054806F026FE2146BDE81040014806F0BC
:2046800020BE10BD184100202441002010B504460948214606F02BFE68B12468B4F88010AA
:2046A000204600F033FA04F1820004F19C01BDE8104000F053BA10BD1841002030B1054B05
:2046C0009B68C01A044B8010584370474FF0FF30704700BF30410020ABAAAAAA38B50D4D67
:2046E000002818BF05460C4806F087FD044668B12846211D06F0B4FE20B12046BDE8384097
:20470000FFF7DCBF204606F0B5FDEFE74FF0FF3038BD00BF58BE20008C44002080B161B199
:20472000C3684068CB1A93FBF0F14B1C07D0054B0C209B6800FB013070470846704700208D
:20474000704700BF3041002090B171B1C368CB1A416893FBF1F35A1C09D0064AD35C02688C
:2047600043FA02F000F001007047084670470020704700BF5955002050B10368072B06D87D
:20478000044A52F823301B1A5842584170470020704700BF5045002038B504460D46FFF744
:2047A000EBFF08B1A5600AE0064A1368072B07D8591C1160044A2360A56042F82340012011
:2047C00038BD00BF704500205045002038B505460A4806F012FD0146284606F0F7FD044623
:2047E00028462146FFF7B0FF28B928462146BDE8384006F0FCBD204638BD00BF8C440020B3
:204800002DE9F0474F4F0646002918BF0F46384691469846FFF762FF421C05467DD14A4CF5
:20482000204606F03AFD0546002864D14846414605F0F2FA00285CD0FFF750FF431C3CD043
:20484000A3680C2404FB0034404B1A5CACB36AB11D540BE0002D47D0434545DB204606F0CB
:2048600009FD044684BB2C46002D42D00025384B53F82580B8F1000F11D0D8F80890B9F1B5
:20488000000F0CD02146404606F0A0FD824640465146FFF759FF012801D15046C8470135A4
:2048A000082DE4D12046FFF709FF2A4B00221A542146294806F0ABFC1EE0274806F09DFC34
:2048C00000250446A846CDE72046FFF7F7FE1F4B1B5C002BC2D11F4A125C002ABAD0D10774
:2048E00048BF01335210F8E7002BBFD025469846B4E7002422E004462146174806F09BFCDB
:204900002046FFF7DBFE39460546201D06F0A5FD0EB16B1C03D1002405E0002EFBD07468CB
:20492000F36804FB053400217268204606F0EEFA084831462246012306F02CFD2046BDE828
:20494000F08700BF58BE2000304100204955002050450020595500208C44002070B50546B9
:204960000C46002329462246054806F013FD0646294622460023034806F00CFD304670BD65
:20498000595500204955002003460A4602481946012306F0FFBC00BF4955002003460A465E
:2049A00002481946002306F0F5BC00BF4955002010B508490B888342A1BF074C80B222880A
:2049C0001218A1BF181A088022800120B8BF002010BD00BFB6520020B8520020014B188077
:2049E000704700BFB65200200048704774450020014B1888704700BFB6520020034A044B1B
:204A000010781B781844C0B2704700BF69550020B852002008B5FFF7F1FF014B184408BD1F
:204A20007445002070B50D4D0D4C2A78238806461344802B0FDC0B4906F08EF92B781E4469
:204A4000FFF7E8FF22880146304606F085F928782388184470BD002070BD00BF69550020E0
:204A6000B65200207445002008B5FFF7C7FF024B1B88184480B208BDB652002010B5044642
:204A8000FFF7F2FF2318802B0FDC013880B202B2002A04DB064B995C23449954F5E7054B70
:204AA000187820441870012010BD002010BD00BF744500206955002038B5094D094C002170
:204AC0001A22094806F022FA2846214606F0C5FC05F108002146BDE8384006F0BEBC00BFFA
:204AE0001064002058BE200020640020044A00231380044A1380044A1370FFF7DDBF00BF41
:204B0000B8520020B65200206955002038B50C460546FFF7EBFF802C28BF802429462246ED
:204B2000034806F019F9034B20461C8038BD00BF74450020B652002010B50C461A2205497C
:204B400006F00AF92046BDE810400349102206F003B900BF2064002010640020034610B5CC
:204B60000C461A221946054806F0F6F82146BDE810400348102206F0EFB800BF206400203E
:204B800010640020024B23F810100120704700BF20640020014B33F81000704720640020DC
:204BA00008B5044B0D3803EBC00006F056FC012008BD00BF10640020024B0D3803EBC00035
:204BC000704700BF106400200148024906F048BC1864002058BE200070B505460B480E4654
:204BE00006F00BFB044678B1012D04D1A3683BB13046984703E01DB963680BB1984718B907
:204C0000204606F037FBEDE770BD00BFF4450020054B10B51B689847044B5B689847BDE8E0
:204C20001040034B5B68184774BD2000D8BD2000F0BD2000084808B5FFF772F80748FFF72F
:204C4000C5FD014630B10B7A04485B080B7206F0CEFBF6E708BD00BFF45A00203C4100208E
:204C60000146014806F0DABB3C410020F8B531F0020307460E4615462FD11848394606F0D8
:204C8000CDFB044650B92346144839460922FFF7B7FD044608B306F0FDFBA080FDF76EFC6F
:204CA000237A20602B44102BA8BF10232372022E204608BF0C3506F0DBFBED01002814BFAB
:204CC0000A221922ADB25543A188C2F1640301FB03556423B5FBF3F5A580F8BD3C41002049
:204CE00038B505460420FFF755FF294684B20F4806F094FB034658B929460C480922FFF74F
:204D00007FFD054680B1C48006F0C4FBA88038BD0A2224B25443B0F906105A2202FB014271
:204D2000642192FBF1F2C28038BD00BF3C41002010B50748FFF74AFD044640B121460448AC
:204D4000FFF70CFE2146024806F051FBF4E710BD3C41002010B500210548FFF71DFDBDE833
:204D6000104004484FF4E131034A0023FEF7CEBF3C410020F45A0020354C200070B5FDF78B
:204D8000FDFB044600260F4D0D2005EB0615FFF713FF294606F064FB78B10720FFF7FAFE0D
:204DA0002B7B834201D0002070BDA868201AB0F5206F8CBF0020012070BD0136102EE2D10B
:204DC000F1E700BFB846002070B50025154C0D20FFF7F2FE04EB051106F042FB691C10B9DA
:204DE00010290D46F2D14D1E04EB0111A1F110063DB120393046102205F0AEFF013D31460A
:204E0000F4E70720FFF7C6FE2073FDF7B7FBA0600D20FFF7D1FEBDE870400146014806F0D0
:204E20001CBB00BFB846002030B591B0054600F063F84FF6FF73984202D14FF0FF3052E0FE
:204E400040226846002106F061F8284B1A782AB901221A70FFF782FB254B18707DB107207D
:204E6000FFF798FE58B9224C23780BB90123237007202178FFF786FE237801332370FFF77F
:204E8000A3FE6A46C1B21B4806F074FBFFF79CFE28B1FF238DF800308DF8013006E00E207C
:204EA000FFF78AFE0146684606F0D7FA0D20FFF783FE014602A806F0D0FAFFF7ABFD0E9027
:204EC000FFF796FD0F90684606F045FC04464DB1FFF7D4FD0028B0D0FFF786FD01466846A0
:204EE00006F083FC204611B030BD00BF6B5500206A550020954B2000014B1888704700BF49
:204F0000504200202DE9F041012986B006460F46144640F3868003A906F0B0FC04F11000B1
:204F200003A90A2205F018FF9DF811300BB1B51C02E0B378F51CA37603A801A902AA06F0FC
:204F400061FB9DF81380B8F1000F23D0029B23B16A7815F8023B03EB0223B8F1020FA38392
:204F600009D12046314906F078FA6B78237015F8023B637014E0B8F1030F11D105F10802EB
:204F80001346611E13F8010DAB4201F8010FF9D1154605E02046254906F05FFAA4F81C80C5
:204FA0009DF81580B8F1000F2BD0019B53B16A7815F8023B03EB0223029A9BB2E3831AB913
:204FC000A38301E0A38BE383B8F1020F0AD104F10800164906F041FA6B78237215F8023B52
:204FE000637215E0B8F1030F12D108352A46E31D04F10F0112F8010D03F8010F8B42F9D1DD
:2050000006E004F10800094906F027FAA4F81E80AE1BBB1BE363A563BE42D4BF30460020F4
:2050200000E0002006B0BDE8F08100BF58BE200070B505460C46102C07D92B68686808491D
:205040001022984750B9103CF5E734B12B6868682246BDE8704002491847204670BD00BF0D
:20506000C2C020002DE9F04F80468FB0069107920026069B1B78002B00F05F83069B1C46AA
:2050800013F8012B1AB9069B9C4203D10FE0252AF5D1F8E7069BD8F80400E51A0699D8F8ED
:2050A00000302A469847002840F02A832E442378002B00F042836378611C002B00F03D834C
:2050C00000240A4611F8013B2B2B11D006D8202B11D0232B12D144F00804F2E72D2B04D060
:2050E000302B0BD144F01004EBE744F00104E8E744F00604E5E744F00204E2E7A3F1310184
:2051000008290DD8134600251A4613F8011BA1F13000092811D80A2202FB0515303DF3E70E
:205120002A2B09D1079B01321D68191D002D0791B8BF44F0010400E0002513782E2B1CD165
:205140005178531CA1F1300009280ED8194600270A780B46A2F13000092801F101010FD816
:205160000A2303FB0727303FF2E72A2906D1931C079A111D0791176802E013464FF0FF371F
:205180001A786C2A09D15A786C2A02D144F080040AE0013344F060040BE0682A09D15A783B
:2051A000682A03D144F02004023302E0013344F040041A78642A3CD01FD8462A48D00DD8DE
:2051C000252A5AD003D8002A00F0B78257E0412A4AD0452A53D144F4424450E0582A31D068
:2051E00004D8472A4BD144F4A13448E0612A38D0632A44D144F4A06441E06E2A3AD007D8FE
:20520000662A22D027D3672A28D0692A11D036E0732A2CD006D86F2A11D0702A2FD144F43C
:2052200040742CE0752A07D0782A28D144F4C85425E044F4245422E044F410641FE044F4AF
:2052400088541CE044F4B24419E044F4007416E044F4844413E044F4024410E044F481345F
:205260000DE044F4C1340AE044F4E13407E044F4806404E044F4E06401E044F4C064013309
:20528000069304F4E063B3F5806F00F0AA8116D8B3F5807F2BD0B3F5407F7FF4EAAE079BE4
:2052A000A04914F4804F03F104029F4818BF08460DF1330107920F461A680023C5E1B3F515
:2052C000C06F08D0B3F5E06F00F03182B3F5A06F7FF4CFAE00E2D8F80030D8F804009349F4
:2052E00001229847002840F00B820136C1E6002FACBF24F01004012714F40053039304F01A
:20530000E00337D0402B17D008D8DBB1202B2AD1079B1A1D079293F9002017E0602B11D01E
:20532000802B20D1079B073323F0070303F108020792D3E900230AE0079B1A1D0792B3F95A
:20534000002003E0079B1A1D07921A68D317002A73F1000109DA524263EB4303CDE90023F9
:205360004FF0010933E000220023CDE900234FF000092CE0402B16D007D8CBB1202B20D177
:20538000079B1A1D07921A78EEE7602B10D0802B17D1079B073323F0070303F108020792A6
:2053A000D3E90023E1E7079B1A1D07921A88DBE7079B00211A1D07921B681846CDE9000145
:2053C000D5E700220023CDE900234FF0000904F4C053B3F5805F0CD0B3F5C05F33D0B3F5CB
:2053E000006F4FD1DDE900230DF1360ACDE9042304E0DDE900230DF1360A15E0DDE904232D
:2054000013433AD0DDE904010A22002305F09AF9DDE9040130320AF8012D00230A2205F0E9
:2054200091F9CDE90401E9E752EA030125D002F0070130310AF8011DD10841EA4371D8080F
:205440000A460346F0E7384B14F4804F0DF1360A344908BF1946DDE9002352EA03000CD09D
:2054600002F00F00085C4FEA131E0AF8010D100940EA037002467346EFE70DF1360BCAEBCC
:205480000B0B03E00DF1360A4FF0000B41F6080241F208035F4502EA04028CBFCBEB070767
:2054A00000279A4202D1002F08BF012741F608018A4207EB0B030DD1DDE9000150EA01020A
:2054C00008D01B4914F4804F1A4A4FF0020C18BF0A4602E04FF0000C62460399A1B1B9F174
:2054E000000F0AD104F0060102290AD00629124904BF4FF0010C0A4606E04FF0010C0F4A4E
:2055000002E00F4A4FF0010C63449D428CBFED1A002514F0010922D1E30613D52F444D462F
:205520001DE000BFD2C02000E3C0200005C12000F7C02000F4C02000FCC02000FAC02000F3
:20554000A4BF200040462946CDF80CC00092FFF76FFD009ADDF80CC0002840F0D180BCF1BD
:20556000000F0DD01146D8F800306246D8F80400CDF800C09847DDF800C0002840F0C080DB
:205580003C465E44102CD8F800300DD9D8F804006C491022CDF800C09847002840F0B0801E
:2055A000103CDDF800C0EDE75CB1D8F8040065492246CDF800C09847DDF800C0002840F0EE
:2055C0009F80D8F80030D8F8040051465A4666449847002840F094803E44B9F1000F79D028
:2055E00073E0079BD3F800A01A1D0792BAF1000F09D05346994699F800200133002AF9D197
:20560000CAEB090903E0DFF840A14FF00609002F02DBB94528BFB9464D458CBFC9EB05054F
:20562000002514F0010405D140462946FFF700FD002865D1D8F80030D8F8040051464A4625
:20564000984700285CD14E443EE052EA030E0ED002F00F0E10F80EE04FEA131C01F801EDE7
:205660004FEA121E4EEA037E72466346EDE70B467F1A01BF3022012701F1FF3301F8012C65
:2056800003377822BD4203F8012C4FF0300203F8022C88BFED1B4FF0230298BF002514F042
:2056A0000104A3F1030903F8032C04D140462946FFF7BEFC20BBD8F80030D8F80400494663
:2056C0003A469847E0B93E4424B140462946FFF7AFFCA8B92E44CCE4079B012D03F1040298
:2056E0001B688CBF05F1FF35002514F0010407928DF8203008D140462946FFF799FC10B1FC
:205700004FF0FF301AE02E44D8F80030D8F8040008A9012298470028F2D16F1C2CB140464F
:205720002946FFF785FC0028EAD13E44A1E4079B1A1D1B6807921E609BE430460FB0BDE8CD
:20574000F08F00BF07C12000FEC020000FB407B504AA52F8041B04480192FFF783FC03B0A8
:205760005DF804EB04B070474C4100201FB5084C8DE80300114602A81A460294CDF80CD095
:20578000FFF770FC009B00221A7004B010BD00BFF1B82000014B1B6A184700BF74BD200017
:2057A000014B5B6A184700BF74BD200007B5FFF71FF903281BD00F4B9B689847002816DB34
:2057C0000E20FFF7F9F90C4905F04AFE58B1FFF7D5FA60B9FFF7F8FA084B9B68019303B0B5
:2057E0005DF804EB1847FFF7EFF90028EFD103B05DF804FBCCBD20003A640020F0BD200005
:2058000070B590F82D200124012AD4BF0332052205469440FEF7A2FE013CB0FBF4F12B465D
:2058200001FB1401034A05F10C00BDE87040FEF76DBA00BFC15820002DE9F0470D461446A5
:205840008B680746506BD3F80090D3F8048092F82C6005F0DCFC6868FEF702FFA96814488D
:2058600005F02FFD1348294605F02BFD606B05F0C4FC40B1002384F82C3084F82D30204675
:20588000FFF7BEFF0BE004F10C00FEF765FA0A48214605F0BCFC0948214605F012FD484665
:2058A00041463A463346BDE8F04705F013BE00BF5441002060410020184800206C41002044
:2058C0002DE9F043044685B0002800F0DA80406B05F093FC002800F0D4804068FEF7D6FE82
:2058E00069490D20FFF75CF901210820FFF74AF9664B5B68984700287CDBFFF775F8644E14
:2059000085787768FFF770F88046FFF7ADF801464046B847FFF758F9D6F818800746C0471F
:20592000002852D15FB1B3680193FFF79DF8019B984748B102280CBF0125042546E0F36998
:205940009847002841D1EEE70FB100253EE0FCF74DFE8146F769B84710B1C04768B90AE01F
:20596000FCF744FE6FF00C03C9EB0303C342F4D5FCF7D6FFEEE7B84718B1FCF737FE8046A9
:205980000EE0736998470028F7D00EE0FCF72EFE6FF01403C8EB0303C34204D5FCF7C0FFA3
:2059A000B8470028F2D0B84708B902250EE0336903A803219847032807D19DF80E305D1B91
:2059C00018BF0125002DC0D000E00125606B05F014FC0646002854D00721706805F0D4FCDA
:2059E00007460720FFF7D6F8874205D0304605F041FCEEE70525E9E7B268002A41D0032DD5
:205A00003DD8DFE805F0021D0B3E94F82C300020013384F82D0084F82C300CE0002384F805
:205A20002D3094F82C300133DBB284F82C30127A9A421DD8022031462246FFF7FDFE20E039
:205A400094F82D300133DBB2052B83BF002384F82D3094F82C3084F82D3084BF013384F87A
:205A60002C3094F82C10137A994201D30120E2E72046FFF7C5FE706805F080FC01E0284625
:205A8000D9E705B0BDE8F0833A640020CCBD200074BD20002DE9F04107460E208846FFF73B
:205AA0008BF8454B05461A78444C22B901221A70FEF754FD2070237813B9404B01221A7069
:205AC000217807204B1C2370FFF75CF80C200121FFF758F83A4805F090FB044640B1201DB4
:205AE000294605F0BDFCD8B9204605F0C3FBF4E7344805F0D2FB044640B32946201D05F0E8
:205B0000ACFC002304F13000606384F82C3084F82D30236305F06EFB2948214605F08BFBEA
:205B2000606B05F0A0FB072810DC274805F0B5FB054698B9606B05F096FB38B9204821462E
:205B400005F065FB1F48214605F0BBFB38464146BDE8F0410422012305F0BCBC1B4805F08D
:205B60009CFBA86008B3FEF759FD6860C8B10620AE68FFF70FF8C0B208B1307201E008232D
:205B8000337286E880012946606B05F054FB606B05F033FB85420DD12046BDE8F041FFF72E
:205BA0002FBE0A48A96805F08CFB2946064805F088FBBFE7BDE8F0817D550020745500204D
:205BC000184800206C410020604100205441002008B5064805F051FB054805F04EFB0548DE
:205BE00005F04BFBBDE80840FEF704BD60410020544100206C41002005289ABF024B33F886
:205C000010000020704700BFBA52002010B5044C002120460C2205F079F90023238110BDED
:205C2000BA5200202DE9FF41204C214D04F108030FCB8DE80F0029786F4694F80780A1B1EF
:205C40003A23A3711B4B1A88521A92B21A80A2F1280318122C312071214404F12C002C3ABF
:205C6000637105F0EFF800232B70134805F0C5FA064690B1D6F804C0BCF1000F09D00D4B9B
:205C80002A781B8838322C3B3846414622449BB2E047304605F0EEFAEAE7064B287018806A
:205CA000FFF7B4FF04B0BDE8F08100BF985C002090550020885C0020EC480020F8B52A4B1F
:205CC0002A4C1B7904F11806E371237E04F10805FF2B08D195E80F0086E80F0028463146BF
:205CE00000F0C6FB1BE02F46B646214A3B4603CB7345106051601F4602F10802F6D196E84D
:205D00000F0085E80F001A4B1A4D03F110062A4618685968083303C2B3421546F7D1164DF6
:205D2000297899B13A23A371144B1A88521A92B21A80A2F1280318122C31207163711048BA
:205D400021442C3A05F07EF800232B702B7881222833E518E25400236B706B8005F0C4FEDB
:205D6000C0436880F8BD00BF1C5B0020985C0020C6520020B05C002090550020885C0020AC
:205D8000C45C002038B504460B480D4605F035FA78B10379A34209D14379AB4204D18368F5
:205DA0003BB19847002038BDFF2BF8D005F062FAEEE7012038BD00BFF0480020014601482E
:205DC00005F039BAF04800202DE9F74F4A4D81462B7888469246494C63B12833E35C3A2BD8
:205DE0000FD1474A002313802B7003B0BDE8F04FFFF70CBFA3793A2B03D194F92830002B24
:205E0000EFDA404B404E1B6B9847404A3746934606F1100E334603CB7345106051601E46C2
:205E200002F10802F6D1364E2978338804EB410030339BB2B3F5A06F88BF4FF4A0633380E7
:205E400032882E4B521A303A19463030019304F0F9FF602229782270002262706280019BD3
:205E60003A2211B183F8282000E09A71284A234B1279E271228972B95A8962B99A8952B996
:205E8000DA8942B91A8A32B95A8A22B99A8A12B9DB8A002BA5D01F4B0FCB87E80F009BF80D
:205EA0000030FF2B05D1B9F1040F9AD1B8F1020F97D11649174800F0DBFA2F78504607F1B0
:205EC0002803E21804F8039082F8018005F012FE33882C37283BE0511A1263712B78227126
:205EE00028331C440023638005F0FEFDC043608003B0BDE8F08F00BF90550020985C00205F
:205F0000885C002000BE2000B05C0020C65200201C5B0020A05C00202DE9F8431D46864608
:205F200089469046174C602323703A23A371164B04F118061B797146E3712B1D1A12002724
:205F400022713046102263716770678004F004FF04F10800314600F08BFA0C4B2C351B7849
:205F600028331E1903F8049086F80180778005F0BBFDC043064B70801D80BDE8F84300F0AC
:205F800069BC00BF985C00201C5B002090550020885C002008B50448FFF710FFBDE808406E
:205FA0000248FFF70BBF00BF78410020844100201FB502460C46074B11469B6968469847B2
:205FC00068462146102204F095FEB0FA80F0400904B010BD00BE200070B506460A480D461B
:205FE00005F00BF9044660B13DB1A3689E4204D120462946FFF7DCFF18B9204605F03AF99A
:20600000F0E7204670BD00BF784A002030B505460C460E4B85B05B6968469847214628463F
:20602000FFF7DAFF694604462846FFF7D5FF11232CB1844205D0013B03D06469F8E7204693
:2060400002E0231A5842584105B030BD00BE20002DE9F843904606460F469946FFF7BCFF16
:20606000414604463046FFF7B7FF0546B8F1000F0CD058B92A46304641464FF0FF33FFF769
:20608000E7FF054610B90020BDE8F8837CB9174805F003F904460028F5D0002343612146DC
:2060A000134805F0C8F8134A13680133136007F10801A660C4F8049004F10C00082204F0DB
:2060C0004BFE30463946FFF7A1FF50B1D4F81480304665613946FFF799FF18B9C4F8148021
:2060E00000E065612046BDE8F88300BF90410020784A0020F448002008B5054B002205480A
:206100001A6005F0BAF8BDE80840034805F072B8F448002090410020784A002070B5054668
:20612000154805F06AF804462CB3204605F0A2F863680646B3B9104805F05FF828B14369E1
:20614000A34202D005F096F8F8E70B48214605F05EF80A48214605F0B4F8094A1368013BBD
:20616000136006E05A1C04D0AB428CBF5B1B002363603446D8E770BD784A002090410020AF
:20618000F448002038B50C4805F037F804468CB1204605F06FF805462146074805F037F8D0
:2061A0002146064805F08DF8054A2C461368013B1360ECE738BD00BF784A0020904100206B
:2061C000F44800202DE9F3410446154D00910E4690461F460195234612480321202205F099
:2061E000CBFB01282B4616D12A6804F11001107020462A68023250F8044B884242F8044B2A
:20620000F9D11868089B86744361099B80F813800777836100E0002002B0BDE8F08100BF5B
:20622000804A0020185C002038B505460B4C0C4B236020680B4B98420BD2037833B1827C85
:2062400029460230D20804F055FD20B123682033EEE7002038BD012038BD00BF804A002025
:20626000185C0020785C002013B5084C802203460092019406480321202205F07DFB08B986
:20628000206800E0002002B010BD00BF844A0020345B002010B50C4A0C4B136013680C49E6
:2062A0008B420DD2197849B1411C02D0997C814204D148F2FE015C888C4202D02033ECE7E8
:2062C0000023184610BD00BF844A0020345B0020945B002037B504460F4D802300930195A7
:2062E00023460E480521122205F046FB01282B460ED12A6804F11001107020462A68023292
:2063000050F8044B884242F8044BF9D1186800E0002003B030BD00BF7C4A0020B85B0020D1
:20632000F7B50546204C802300930E46174601941E48032120222B4605F01EFB012830D109
:206340002A46236805F1100118702368023352F8040B8A4243F8040BF9D12068C77416B928
:206360000123037505E0002303753146183004F0E6FE23680E480121997402234370FF2261
:206380000023027043808380C38003818372C17202736B7B4373EB89C381FFF79BFF2068D2
:2063A00000E0002003B0F0BD844A0020345B0020D652002013B5084C80220346009201946A
:2063C00006480521122205F0D7FA08B9206800E0002002B010BD00BF7C4A0020B85B0020AF
:2063E00038B50546C8B10D48022200244270FF230122C27244808480C48004818472037327
:206400000370EB7B43732B8AC381FFF7D3FF044A106008B105F0DAFA2C7038BDD652002013
:206420007C4A002010B50E4B0E4C236020680E4B98420ED203784BB1037D3BB91830FDF7B9
:20644000F1FA18B1074B1868FFF7CAFF23682033EBE700F0D5FFBDE81040044804F080BE10
:20646000345B0020844A0020945B0020785C00202DE9F84348F2FE030A8805469A42884669
:2064800021D00B78FF2B1ED01B4B0024A1461F461A4A1A603E681A4A964218D233787BB119
:2064A000B37C012B0CD148F2FE0372889A4207D04046B11C05F0A4FA484524BF3446814625
:2064C00020363E60E6E70120FFF7E4FE04464CB92C806C80AC80EC802C816C81AC81EC814F
:2064E000BDE8F883A31C123453F8042BA34245F8042BF9D1BDE8F883844A0020345B002025
:20650000945B002010B5FEF729F80446FEF726F8054B24029A68A4B22044B0FBF2F302FB75
:20652000130000EB520010BD1C5B002073B5304C00F0FAF800F0D8FE002160222D4804F04F
:20654000E5FC00212046F82204F0E0FC2A4B20221A702A4B18221A704FF4A06323604EF662
:20656000602340262671A360FFF7CCFF4FF47A73236148F2FE03314640F2FF260025E060B5
:2065800025751F4C2A46238065802B46A580E580204600950195FFF715FE2046194905F0AC
:2065A00019FA294601222046FFF7BAFE4FF480732046E38126806580A580E5802581658181
:2065C000A581FFF787FE4FF40073204626806580A580E58025816581A581E381FFF77AFE65
:2065E00009480C2102B0BDE8704004F0B0BD00BF1C5B0020185C0020155C0020145C0020AA
:20660000D6520020905C0020785C00202DE9FF47804616460F46002963D02AB9344A04B0EE
:20662000BDE8F04705F078B91488BCB95288C2B9B3889BB9F2889AB933897BB94FF6FF72F0
:20664000748994420CD1727B337B0092B27B0192F27B0292274A05F05FF945E0002400E0B5
:206660001C46A246A14606EB09035B7816F8095003EB0525ADB27DB9BAF1000F0FDB28D168
:2066800008EB0400391B1C4A05F046F90444BC4229D24FF0010A1EE0BAF1000F0CDCB9F140
:2066A000000F0BD008EB0400391B144A05F034F90444BC4202D316E04FF0FF3A08EB0400A5
:2066C000391B0F4A2B4605F027F90444BC4202D309E00AF1010A09F10209B9F1100FC2D11C
:2066E00001E0084600E0204604B0BDE8F08700BF1CC120002BC120003EC120003FC120004E
:2067000041C1200010B5044648B1054B9B6C9847044B2146BDE810401868FEF71FB910BD54
:2067200000BE20009C41002008B5FEF713FB034B03491868BDE80840FEF72EB89C410020DF
:206740000567200070B51E460D4B04469DF810201868059BFEF754F8054670B120462B4619
:2067600004F1100250F8041B904243F8041BF9D1044B6E7428469B6C9847284670BD00BFD6
:206780009C41002000BE2000024B0146186804F05EBE00BF9C41002070B50C4D06462868E4
:2067A000FEF714F8044666B9002070BD20463146102204F09FFA38B12146286804F017FE9D
:2067C0000446002CF2D1EFE7204670BD9C410020024B0146186804F021BE00BF9C41002077
:2067E00013B5044601202146FEF7F6F938B92046084BDB68019302B0BDE810401847064B43
:2068000000241C80054B1C70FFF700FA204602B010BD00BFF0BD2000885C00209055002072
:20682000002008B50146FEF7D7F9024618B906480221FDF7BFFB054A00231380044A137061
:20684000BDE80840FFF7E2B9B0410020885C00209055002070B53A4D88B02B88002B6DD0A1
:20686000B3F5A06F45D8374C238B73B9638B63B9A38B53B9E38B43B9238C33B9638C23B9D3
:20688000A38C13B9E38C002B33D02F4E736B984718B92E4B288018702FE0237EFF2B25D0DD
:2068A0002B48FFF7E1FC28B12B88002B46D000F051F843E0336C04A8984708BB2448FFF71A
:2068C000B3FC002836D1224805F020F9044618B900F07EFD68B12FE005F016F960BB20462F
:2068E000F36C9847204605F013F902E00020FFF777FF164A00232B801370FFF787F91DE061
:2069000004AC2046FFF748FF064678B902A8214605F06BF806238DE848003246204602A9CF
:206920000123FFF70FFF06460028E2D03046FFF72BFFDCE7064CE4E70446E2E708B070BD9B
:20694000885C0020985C002000BE200090550020B05C002008B5012000F054F9034B1B8804
:206960001BB1BDE80840FFF775BF08BD885C002038B50388054614463BB140F245329342E4
:2069800015D000230380032038BDFDF789FA234B40211870224804F0DAFB00F0E9F8214B16
:2069A0005B68984740F245332B80012038BD022906D11D4B1B88002BF4D0FFF7CBFFF1E736
:2069C0000BD80129EED1002CECD0184B05201C6000F018F9FFF73EFFE4E787290BD1144B15
:2069E0009A692033A24204BF002223F8102C114A9342F5D1D6E78829D4D1094B9C4202D113
:206A0000204604F0B6FB0C4B9C42CBD1204604F0B0FB0028C6D0FFF705FDDBE75A6400203F
:206A2000884A002000BE2000885C0020A0610020B0610020B0620020785C0020074B1B6835
:206A40000BB1283302E0064B1B681833186820B1044A11785A68FDF7ADBA7047A8610020F9
:206A6000A06100205A64002037B5124B124D1C782B796A79C4EB032313449BB2ADF8063000
:206A8000BDF8063005F108011844202280B205F00FF8BDF8062004F12801294492B205F0A1
:206AA00007F810B140BA80B201E04FF6FF7003B030BD00BF90550020985C00202DE9F04196
:206AC000274F284E3D7828482835AB195C780223E40007349C423EDBE9187218715CDFF846
:206AE0008480012932D002D3632902D012E001332FE0037018461D4B1B4C9B6B9847D0B1F8
:206B00003B7822782833134443445B7813440233237021E001F0C001802905D0C02905D00E
:206B2000402913D1037006E0037007E098F818200370FF2A02D10120BDE8F08104200221A0
:206B4000EA18FFF741F90220BDE8F081527802321344DBB2BEE703700020BDE8F08100BFDC
:206B600090550020985C00209255002000BE200008B5FFF7DBFCFFF70DFA00F0AFFB074BA4
:206B80004FF480621A800023054A00211A442033B3F5807F1182F7D108BD00BF06540020F2
:206BA000B061002070B5144B1D781DB3134E05F12701328891424FF0000105DB3180197055
:206BC000BDE87040FFF722B80D4C197094F8283005F12801283AA371521B04F12800214446
:206BE00004F030F933885B1B9BB23380283B1A122271637170BD00BF90550020885C00205C
:206C0000985C002004282DE9F74F904D00F0D1818F4C904B9049052823600B60A04612D146
:206C20008E4A1268128A002A00F000820C3B23600B608B4B00228B481A808B4B02602A804E
:206C400008221A70B3E113F83C2CA3F13C0402F0F002602A40F0EA81227961791202288863
:206C60005618864200F3E28128310A442A80227AFF2A00F0DB817D4A363B13607C4E7D4BE9
:206C8000002131701970A17992469946B9B9012389F80030FFF712FF012800F0C78103D353
:206CA000022800F0BF810AE0337803F128022244CAF800205278083303EBC20333706E486E
:206CC000FFF7D2FA002840F08A806B48FFF772FB002840F08480227E684BFF2A3ED048F25A
:206CE000FE00198B814239D01989814236D071B9598961B9998951B9D98941B91B8A33B97C
:206D0000618A5E4B19B9998A09B9DB8A33B3218B5A4B79B9598B69B9998B59B9D98B49B9B8
:206D2000198C39B9598C29B9998C19B9DB8CB3F5807F13D02B88B3F5A06F04D90220002183
:206D40004FF4A062CEE0E379012B03D8002103200A46C7E0494A013BD37163E148F2FE0310
:206D60002189994240F06281218B444B81B9598B71B9998B61B9D98B51B9198C41B9598CC8
:206D800031B9998C21B9DB8CB3F5807F00F04E81FF2A00F04B813848FFF746FA0246002832
:206DA00040F04481012002219CE01FD93B2B00F03D813C2B22D199F800302E49980736D5D6
:206DC0005F0600F18C8043F040030B70FFF776FE012800F02B812DD3022800F02381DAF8A1
:206DE0000020224913782C2BDFD11FE1112B00F097802B2B44D0002B71D102E03A2B6ED1D6
:206E000073E099F800300191DF0768D4194A43F001031370FFF752FE012800F0078101990C
:206E2000DAD2337803F1280222440A6008E043F00203CAE7337803F128022244CAF800202B
:206E40005278083303EBC2033370C8E7885C0020A4610020D45C00208C5C0020A061002086
:206E6000AC610020A8610020986100209C6100209055002091550020B05C0020985C00203B
:206E800099F8003058072AD46F4A43F0040313703378DFF8C0B103F128022244D0786B4FE5
:206EA000A8B16B4BDB6B9847014658B12B88B3F5A06F3FF643AFFB79012B7FF647AF013B76
:206EC000FB71AFE09BF8002004202A320AE00A605278083303EBC2038BF800307FE704203B
:206EE0000121121BFEF770FF9CE004F0FDFD4FF6FF73984240F09A8033782833E218E05C5E
:206F00005178FEF73FFF012805D1524A00232B801370FEF77BFE2B88002B00F0878081E0E5
:206F2000FFF740FEE38D2BB9638D002B7ED04A4E4A4B0AE004F0DBFD4FF6FF73984275D1A6
:206F4000F2E70B8A3BB93368203333603168444B9942F6D317E0628D9A42F4D14B8A1BB15A
:206F60003A4A128D9A42EED10B682BB94B681BB98B680BB9CB6853B13A48102203F0BAFE28
:206F80000028E0D103E0012004210022AAE72B883549303B2B8000230B6034490220344A4A
:206FA00008703449C8F800200A60334A1380FFF745FD314B1A88002A38D002F13003234C65
:206FC0009BB22B80283B1912637160232370224B08321B68002652BA2171197DA285E6852B
:206FE0001A8AE17122855A8A112162856670A17104F118050FCB85E80F0004F1080029463B
:20700000FFF736FA1D4B04F13C021A6004F06FFDC04380B2334608B1E08502E04FF6FF7271
:20702000E2856380114B00221A7009E0094B00241C702C80FEF7EAFD034B1C700B4B1C70CD
:2070400003B0BDE8F08F00BF91550020985C002000BE200090550020A0610020B06100204B
:20706000B0620020A05C0020A861002098610020C85C00208C5C0020AC610020A4610020E2
:207080002DE9F0438A4C85B0E3798A4EFF2BDFF8448240F004813378E21892F83020FF2A44
:2070A00000F0FD80234493F82930002B40F0F780814F824D3B6014232B7030782A782C3094
:2070C000B8F8003002449A4258DAA1184878784B002800F0E480A25C012A45D11A89396049
:2070E0007AB95A896AB99A895AB9DA894AB91A8A3AB95A8A2AB99B8A1BB9E38A002B00F0DC
:20710000CE800822023102A803F026FE6C48FFF743FBDFF8C4910246C9F8000040B90523C5
:207120000093019002A902236548FFF70BFB1BE0FFF72AFB0146002800F0B1803868082242
:20714000023003F0D7FD48B1484602A904F075FC0028C0F2A480D9F8003003E0D9F80030BC
:207160005A7C0AB902225A7433782A782C33134423445B7802EBC3022A709EE720440430DE
:20718000FFF772F84F4B4A4D18609946002800F086802B8973B96B8963B9AB8953B9EB8945
:2071A00043B92B8A33B96B8A23B9AB8A13B9EB8A002B74D0424D2846FFF756F82F4600289E
:2071C0006DD140F2FF23228BA5F1080E9A4205F1100C19D16B8ABBB9AB8AABB9EB8A9BB921
:2071E0002B8B8BB96B8BB3F5807F0DD12B7FFF2B0AD195E80F008CE80F0033787344303397
:207200000FCB85E80F0011E02F4D2846FFF72CF8D9F80030834242D197E80F0085E80F0040
:207220003378234430330FCB87E80F0060232370282363713A23A371FF23E371D9F8001084
:207240008823002584F82830E02384F82C3065706580257184F82950023110221B483570FD
:2072600003F07AFD337802224033E718E254B8187A701749082203F06FFD2946062207F1FB
:207280000A0003F043FE337828331C44658004F02BFCC04350236080A8F8003005E000231C
:2072A000A8F800303370FEF7B1FC05B0BDE8F083985C0020905500209C4A002093550020C5
:2072C000A05C0020A04A0020B05C0020C85C0020905C0020885C0020984A00200148FEF7C8
:2072E0006DBD00BFC041002008B5044803F0C5FFBDE80840024803F07DBF00BFCC41002072
:20730000E44A002038B505460A4803F076FF044678B1AC4209D12146064803F078FF21466C
:20732000BDE83840044803F0CCBF204603F0A2FFEDE738BDE44A0020CC41002038B50546F0
:2073400008B9002038BD094803F057FF04460028F7D0201D2946102203F0CCFC18B12046BC
:2073600003F088FFF2E7204638BD00BFE44A0020F8B50E46054608B90020F8BDFFF7DEFF9D
:20738000044648B9104803F088FF04460028F3D00E48214603F05EFF2B46251D03F11007D0
:2073A0002A4618685968083303C2BB421546F7D136B104F11400314603F0C1FE002300E0E0
:2073C000012323772046F8BDCC410020E44A002038B50A4803F011FF044600255CB1251D59
:2073E0002846FFF7D9F908B1437C23B9204603F041FF0446F2E7284638BD00BFE44A0020D7
:2074000010B50A4803F0F9FE044670B1237F43B904F11400FCF706FB18B12046FFF772FFCF
:20742000EFE7204603F026FFEEE710BDE44A00200C4AB82303FB0022002330B553821A467A
:20744000094CE1188D782DB11C5D844202BF00248C70013240F24C5171338B42F0D1104651
:2074600030BD00BF084B0020A2550020044B01221A70FD2100225A709970DA70FDF7BAB817
:207480009855002010B50F4C0220A179FDF77AFBA379112B01D0062B05D1238D618D994271
:2074A000A8BF194608E03A2B05BF94F8281094F82930002143EA01210120BDE81040FDF7D2
:2074C00061BB00BF985C002038B513780546087A83F0020398421DD1487A5378984219D1E7
:2074E000887A9378984215D1C87AD378984211D1087B137998420DD1487B5379984209D16C
:20750000887B9379984205D1C87BD379984201D103201CE00B890F4C83B94B89B3F57F4FDD
:207520000CD18B89FE2B09D120680E31022203F013FC236802200233236008E0206808315C
:20754000082203F009FC2368012008332360A840C0B238BDF44A002010B5074C01462378F8
:20756000012B01D0002010BDA01C082203F0C2FB0028F7D1204610BD9855002008B5014657
:207580000E20FDF70DFB044B04489B6800219847BDE80840FBF7C4B9D8BD20009D7D2000D8
:2075A00070B5154A154D12682B78154C0E4615490144D018226803F0CFFB236828781844BA
:2075C00080B2FDF70BFAFDF729F8044608B9002070BD3046FFF7D2FF2046FDF757F82046C7
:2075E000FDF73EF8084B1B68012BF0D0043B012BEDD9012070BD00BFF84A0020EE5A002097
:20760000FC4A0020985C0020004B00202DE9F04F954D964F002389B02B703B700446FDF789
:2076200065FAFDF7F7F9924A924B12681860AA4699460AB1FFF726FF06A80CB98E4900E08D
:20764000214603F00AFF0420FEF7D6FA01460620FDF798FA06A90E20FDF7A2FA874B884DD7
:207660001B680293984730EA200028BF1520854BC0F17D0018603B78D9F800100233CA189C
:207680002A6008442632824280F070830022CA547D48FFF761FF20B12B68802401332B6073
:2076A00005E07A48FFF758FF0028F5D10446DFF8E48198F8011098F800000B0943EA0013DD
:2076C000DBB29A0842EA8313DBB211F00F0FDEB200F00F000CD1B8F802204AB910B911F002
:2076E000F00F23D02B6803F8016B2B6070261EE088B911F0F00F0ED1286823F03F030B432C
:2077000000F8013B6249022203F026FB2B68682603332B600BE028685E49042203F01CFB1E
:207720002B6803F8046B2B60602600E0782698F80630112B06D02BB13C2B03D0A3F12B020E
:20774000012A01D846F0040672075CBF2A6802F8013B98F8073058BF2A60402B06D0FF2BB6
:2077600007D0012B08D146F0010609E046F0020606E046F0030603E02A6802F8013B2A606F
:20778000B8F80820434B82B95A8972B99A8962B9DA8952B91A8A42B95A8A32B99A8A22B921
:2077A000DB8A13B944F0400015E03848FFF7D4FE394B186088B13B78D9F800100233407831
:2077C000CA5C42EA0012CA5404203049334AFFF77BFE60F03F00C4B21BE048F2FE03B8F8B3
:2077E00008202C499A420CD14B8B53B98B8B43B9CB8B33B904200831284AFFF765FE204372
:20780000E9E728682149102203F0A6FA2B6810332B6098F81830DFF87CB0FF2B7ED19BF891
:20782000192044F00803022ADBB239D1BBF81A10B1BBBBF81C1099BBBBF81E1081BBBBF8C1
:20784000201069BBBBF8221051BBBBF8241039BB9BF8261021BB9BF827202B6844F00B00B7
:20786000C4B203F8012B8EE097550020EE5A0020E84A0020F84A002058BE2000CCBD2000F6
:20788000F44A0020044B0020B05C0020A05C00209A5C0020985C0020EC4A0020905C002047
:2078A000B8F81A00904968BB888B58BBC88B98B9088C88B9488C78B991F8240060B944F064
:2078C0000A00C4B22868253100F8012B032203F043FA2B68043356E0B8F81E00824988B9EF
:2078E000088C78B991F8220060B944F00900C4B22868233100F8012B052203F02DFA2B6870
:20790000063340E0102228687849019303F024FA2A68019B10322A601C4635E00BF1180061
:20792000FFF71AFE724B0146186070B13B78D9F80000023310F803E04A7844F004044EEAC2
:207940000202C254E4B200200EE048F2FE03BBF818209A4210D1BBF81A306BB9BBF81C3066
:2079600053B9BBF81E303BB90BF1180106AAFFF7ABFD2043C4B207E028685C49102203F089
:20798000EBF92B6810332B6028235A4A8AF80030D5F800A000230392039ADFF86CB11578BE
:2079A000112D40F0B380544D54491D444FF2B003B5F800E00A689EFA9EFE1FFA8EFE2EF09D
:2079C0000F0C1FFA8CFC501C9C4508604C4B88461FD1698849BA21F00F010904090C614504
:2079E00017D1F3218AF80010DBF80000196802F1020E01448E4580F0B9816988C8F800E04F
:207A0000080A2988090A00EB011101F5AA61517050E0698849BA01F47F41B1F5704F15D1AD
:207A2000F1218AF8001001931968DBF80030043219448A4280F09A812946022203F08CF995
:207A40006988D8F80020090A91701BE00EF47F4EBEF5704F18D1F2218AF800100193196852
:207A6000DBF80030101D1944884280F07F81294631F8020B000A5070901C022203F06CF9A8
:207A8000D8F80020033212E0F0218AF8001001931968DBF80030053219448A4280F066815D
:207AA0000422294603F058F9D8F800200432019BC8F80020D8F80000DBF800101B68821C77
:207AC0000B449A42DFF834A080F050810222A91D03F042F9DAF800300A4A0233CAF80030FA
:207AE00013780833137089E0985C0020B05C0020EC4A00209E5C0020C05C0020F44A00208A
:207B0000044B002097550020F84A0020002D69D103F1280201920199964A681C01EB020C78
:207B20009CF80180525C08BF03254FEAC808112A08F10808CDF80CC011D082B13C2A0ED05D
:207B40002B3A012A0BD98C488C490268DBF800E00968013271448A4280F008810260884A99
:207B6000DFF814B2D2F800E0844ADBF80000126800EB080172449142059380F0F780614600
:207B80004246CDF810C003F0E7F8DBF800107D485FFA88FEAEF102024A700278059B724442
:207BA0000270744A01984144125C4344112ACBF80010DDF810C008D03AB13C2A05D02B3A6C
:207BC000012A8CBF0022012200E001226D0065F01F052A438AF800208A46BCF1000F7FF4F3
:207BE000DBAE0BE03C2D02D14FF0FF3590E72B2D00F0BA802C2D01D1022589E7604D3B7847
:207C00002A6806A9D65413445C705B4B0E201B685C4C9B1A3B70FCF7C3FF029B984730EA2C
:207C2000200028BF1520DFF868B1DFF868A12178BBF800209AF800E0521AC0F17D0302EBD0
:207C40000E0C9C452E46A04679DDCEEB030AAAF1040A2AF0070AC0F17804CAEB0202121BCC
:207C600022EAE27224F0070532B102F1FF3B9BFBF5FB0BF1030B01E04FF0020BFCF7C8FC00
:207C8000584573DDBAF1000F70DB3F4B00221A603E4BD9F80010B3F800B0081D0BF10102E3
:207CA0001A803A7803F0CEF83B78D9F8002004333B70374FDFF8E0903B8898F800006FEAC0
:207CC00083436FEA9343C3F3072313703B8882F803B053704FEA1B23937006A9C9F800A00F
:207CE000FFF75EFCB846002840D02A4B05221A70234B1A683B886FEAC3436FEAD343C3F3A1
:207D0000072313703B8853701E4AD9F8003017781F44B8F80030BFB29F4223D2DB1BA342D3
:207D2000C8BF2B463268F9081171384606A9C9F80030FFF735FCC8B1D9F80030E8E70D4B48
:207D400028681944704403F007F8BBF800309AF8000018442378C01A80B2FCF73FFE06A83A
:207D6000FFF70CFC012002E00125D1E6002009B0BDE8F08F985C0020F44A0020044B002047
:207D8000F84A002097550020004B002008540020885C0020EE5A0020FC4A002070B5124B3A
:207DA0000C461B68154613B19B68084698470F4B0E201C60FCF700FF0D49064603F050FBC9
:207DC00080B9304621462A46FCF750FF094B304621462A465B6C984720462946BDE870406A
:207DE00003F065BE70BD00BFE84A0020004B002058BE200000BE2000F8B505460023114A3A
:207E0000712404FB0324A278B2B96170FCF7F0FD26460D4F0D4A3B7806F8035BC01A1568EC
:207E2000A0701D44FCF7E4FD3A782946821A304602F092FFA078F8BD01330C2BDFD14FF020
:207E4000FF30F8BDA2550020EE5A0020F84A00202DE9F04115090F2D0746984602F00F048C
:207E600007D00F2C03D145B91024264615E04DB104E00F2C4FF0100500D1102438462A4625
:207E800002F06AFF2A190F2A264605DC78190021C2F1100203F03AF8A4B1C6F110000E4EAA
:207EA00038443168224602F057FF022C05D10A2D9FBFFF23FB72FE233B7332682244326074
:207EC000BDE8F0812DB138464146BDE8F04103F081BDBDE8F08100BFF44A00202DE9F04722
:207EE000074688461646002A47D0434C0025A146238ABB4215D1638A9BB10D20FCF75CFEEC
:207F00000146204603F0ACFA58B1ECB220463146FFF772FF002827DA0027DFF8E0A0B8468B
:207F20000DE0B834002D5DD10125E1E7A8450BD10AF1B80AB8F1000F10D14FF001083AF886
:207F4000063C002BF4D0F1E7504603F026F90028EED04046FFF76CFA0744E9E7002F41DD40
:207F600020463146FFF748FF00283BDDB82303FB0595AB8A1844A8823AE0204DFF2435F8A2
:207F8000063C4FFA84F97BB3284603F006F910B13046FFF74DFAB9F1FF3F03D135F8063CAC
:207FA00003B9F4B2012E05F1B80501D00126E6E765B26B1C16D0B8235D43DFF83C900D20E9
:207FC00009EB0506A6F812803782FCF7F5FD0146304603F042FA05F118004844402103F0FA
:207FE000D5F805E0FF2403E0B9F1FF3FDAD1D8E760B2BDE8F08700BF084B0020204B00208C
:208000002DE9F04F0D2087B0A14FA24EFCF7D4FD0024FCF765FE34703C70FCF7FBFC9E4D64
:208020002860FCF7E5FCAA460097002800F062830420FCF7AFFD994B2A6800B21860557830
:20804000137845EA032503F0F803C02B02D0E02B1CD03FE0009B90781B78D278009904332D
:20806000C5F30A050B7042EA002029462246FFF735FFB0F1FF3F804600F03C83884CB8236E
:2080800003FB00444FF00109223427E0009BD178177990781A78C5F30A0505321A7041EA37
:2080A00000203A462946FFF719FFB0F1FF3F804600F020837A49B82202FB0012B2F814A061
:2080C000A146AA4534BF4FF0000A4FF0010A4FF0010B33E2A046C1462546724C724B0022EF
:2080E0001A70009ADAF800101278885C00F0F00EBEF1F00F04BF00F00F0018701B7802BFD2
:20810000634801320270012B00F2F482009B604F1A7811F802C00CF0E003602B40F0DF81DA
:20812000901C0A4492F801A0604B5FFA8AFB1BF0800F084418BF421C186018BF1A601CF0A1
:20814000100F1F460CF0080232D1CDF804C0CAB9196803220131601C02F0FEFD3A6812F899
:20816000041B8B083A6003F00F0242F060022270627803F0300343EA811302F00F0213436F
:20818000637012E060221968227011F8012B900800F0300002F00F0202436270A01C02229E
:2081A00002F0DAFD3A6803323A60DDF804C01AE002F0FF0092B91A681178C1F3830141F042
:2081C0006001217012F801EB60804FEA9E0101F0300141EA8E1161701A6004E060232370CE
:2081E0000023637063800CF0040303F0FF0201922BB92E4A136813F8011BA17113601CF08D
:20820000030C0BBF294A2A4B136813F80C3009BF13F8011BE3711360E1711AF0400FCAF3BD
:2082200001124DD01BF0800F1FBF1B49009B09681B780FBF00215B189978090922B904F13E
:20824000080C9AB9114614E01A4B1878012805D1587888420CBF1946002100E00021164B31
:2082600019600029EBD1CB468A4666E1124B19680231124B0D200391CDF808C09F5CFCF7CE
:208280009BFCDDF808C003460399604621E000BFEE5A002097550020F84A0020F04A00202F
:2082A000084B0020985C002096550020F44A002068C1200098550020EC4A00206CC12000D5
:2082C000924B0D209F5CFCF777FC9149034604F108003A46FFF7BCFD0AF008000AF00302E3
:2082E00000F0FF010AF00403B8B1002B50D1894B1B88ADF81430531E012B9FBF86490B683B
:2083000013F8010B0B60854B98BF8DF815009A5C04F1180005A9002338E063B31BF0800F7E
:208320001FBF009B7E491B7809680CBF0B465B187C4918BF93F802A0087818BF0AF00F033E
:20834000012806D191F801A09A450CBF0F46002700E00027744B1F60002F00F0D380734B58
:208360000E2013F802B0FCF727FCB91C03465A4604F118000AE0654B0E2013F802A0FCF7C9
:208380001BFC52466249034604F11800FFF760FD337804F1280B283333704FF0000AA31D00
:2083A000019A5D4F002A7ED039680A7802F0F000E02840F04181481CC2F3420E12F0010291
:2083C0003860019208BF4878534A04BF02313960116818BF002011F8017B1160BEF1030F98
:2083E00000F2A880DFE80EF0080204062B2204E02C2202E03C2200E000221A70BA1CD21087
:20840000013A8BF801208BF800003A460BF10200CDF808B002F0A0FC3F4930780A68029B32
:208420003A440A609BF801200132D200D1B208448A44307093445FFA8AFAB1E701310222BC
:20844000584602F089FC396802220BF10200033102F082FC3A6805323A60019B43B9022271
:208460000BF10600396802F077FC3A6802323A60FCF7BEFA2A4A39681268002D40F0358137
:20848000C1EB020A0AF1080A82441FFA8AFA4FEA0A22337892B24FEA1A2A42EA0A0A083368
:2084A000ABF804A033701E4A3B6812689B1A009A137075B9FCF79CFA1D4BCB461B78AA46C8
:2084C000C01A33782F461844283803122371607134E0A5F128031A12227163712AE0BCF14D
:2084E000410F40F00781531CDBB21944204628223B7002F031FC3B7828333B7033782833E2
:20850000337017E0CB46BA4617E000BF53C1200057C1200051C12000F44A002059C12000C4
:20852000F84A002098550020EC4A00206CC12000EE5A0020CB464FF0000A5746FCF758FA85
:20854000009B1A78824200F2D580FCF751FA6B4AFB0011789BB2421A3078DFF8B8E1034464
:208560001344B3F5A06FCEF80020774600F2C2802CB1634B20441B68194402F0EDFB002D40
:2085800040D0B9F1000F0BD05E484FFA88F3B82404FB03033A683178114489B29982198459
:2085A000BAF1000F35D0B8224FFA88F402FB04F354495548CA18114695822231128C02F0FC
:2085C000CBFBDFF8549109F24C5A19F8012C5AB119F8033CA34207D119F8020C4A4B4946DF
:2085E00003EBC00002F0B8FB09F17109D145ECD15FFA88F0FEF71CFFBBF1000F0CD0434BDB
:208600001D800EE0BBF1000F06D0BAF1000FF6D170E0BBF1000F6DD132783B6813443B4A4B
:2086200013803B4C236823B1FEF72CFF23685B689847FEF7F5F85DE002F0F802F02A7FF4DC
:2086400032AF11221A700A7802F0040302F0F302DBB2F03A0193032A3FF66CAF01A353F863
:2086600022F000BF3D8420007586200097862000B986200001310222584602F06DFB3968A2
:20868000CA780431A2F5805292B2120242F0F002ABF8022027E058464A780231A2F58052B6
:2086A00092B2120242F0F00220F8022B022202F053FB3A680432CFE64A7802311209A2F561
:2086C000756292B2120242F0F002ABF8002011F8012C02F00F02A2F5756292B2120242F053
:2086E000F002ABF802203960B7E6A5F12802CAEB020ACAE607B0BDE8F08F00BFEE5A00205A
:20870000F84A0020084B0020985C0020885C0020E84A0020FC4A0020A555002070B50C4B1E
:208720000C481A781C462C321118855C0A4A8878167BC97826B1537BAB4201D101F0E2FE2E
:20874000064A002313802370BDE87040FDF75EBA90550020985C0020B0620020885C0020D0
:208760002DE9F0478EB00021262204A802F0CEFB3B4A3C4C13783C4D234493F82C30297B8B
:208780008DF832309046DFF8E4A000295DD06A7B9A425AD104F108030FCB8DE80F001022EF
:2087A00004A8002102F0B2FB98F80060E94606F12C031C449AF80030E2789E1B2B7E2C3EC0
:2087C0008DF833306378F6B28DF835305B06ADF8302008D505F11C00211D102202F08AFA19
:2087E00098BB14250CE004250AE0625D3AB363195F78052A07F1020705D0062A13D03D4456
:20880000B542F2DB1DE0DB780021102208A88DF8343002F07BFB9DF83420291D073208A8D8
:208820002144D21008E05B79132F8DF83330E6DDA91D04A82144102202F08EFADFE70127D7
:20884000DDE7484604A901F037FE0023AAF8003088F80030FDF7DAF90EB0BDE8F08700BFEE
:2088600090550020985C0020B0620020885C00202DE9F04F9FB000215C2207A802F046FB84
:2088800008238DF836300C238DF8373000238DF838308023ADF83E304FF48063ADF83C30AA
:2088A0000123794CADF82C301E238DF83930774E3C23DFF8DC91ADF83A300DF10C0804F121
:2088C00008030FCB377888E80F0099F800300221FF1A2C331D19E35C28468DF834306B787A
:2088E000B2468DF8333003F029F92B79ADF82E0023F07F028DF83020C3F3C20203F007032C
:208900008DF832306B798DF8312007A805F1080110228DF8353002F01FFA2C3FFFB2182489
